:020000040800F2
:10000000F807002005010008A5340008372F000874
:10001000A1340008E91200083B3900080000000084
:10002000000000000000000000000000D5340008BF
:10003000ED12000800000000A9340008D7340008C1
:100040001F0100081F0100081F0100081F01000810
:100050001F0100081F0100081F0100081F01000800
:100060001F0100081F0100081F0100081F010008F0
:100070001F0100081F0100081F0100081F010008E0
:100080001F0100081F0100081F0100081F010008D0
:100090001F0100081F0100081F0100081F010008C0
:1000A0001F0100081F0100081F0100081F010008B0
:1000B0001F0100081F0100081F0100081F010008A0
:1000C0001F0100081F0100081F0100081F01000890
:1000D0001F0100081F0100081F0100081F01000880
:1000E0001F0100081F0100081F010008DFF810D0E1
:1000F00000F050FF0048004779420008AFF300804D
:10010000F80700200648804706480047FEE7FEE75C
:10011000FEE7FEE7FEE7FEE7FEE7FEE7FEE7FEE7B7
:1001200045350008ED000008202A04DB203A21FABA
:1001300002F00021704721FA02F3D040C2F1200200
:100140009140084319467047D2B201E000F8012BF4
:10015000491EFBD270470022F6E710B513460A4647
:1001600004461946FFF7F0FF204610BD30B505469E
:100170002A460B4612F8010B13F8014B08B1A042B6
:10018000F8D01CB1002802D06D1CF1E7284630BD24
:1001900010B5044604E00B7800F8013B03B1491C9C
:1001A000521EF8D2204610BDCAB2401E10F8011FE0
:1001B0008A4202D00029F9D1002070470022CBB238
:1001C0000178994200D10246401C0029F8D110461E
:1001D000704700000FB400B58DB010A909900B90C6
:1001E00000914FF0FF300A9000200C9005480690D7
:1001F000054807906A4609A80F9900F07DFD0DB0EB
:100200005DF814FB150D0008330D00082DE9FF5FA4
:100210001D464FF0FF3BD5E9014691465F464FF042
:100220000008A9697F1C01988847296A8246884787
:100230000028F6D1BAF1FF3F0CD024F4C064002EA0
:1002400019DD600614D5BAF12B0F09D0BAF12D0FC4
:100250000ED103E0584604B0BDE8F09F44F480643A
:10026000A9697F1C01988847761E8246002E02DD10
:10027000BAF1300F03D0B9F1000F26D032E0A969EE
:10028000761E44F400747F1C019888478246002E35
:1002900005DDBAF1780F06D0BAF1580F03D0B9F1E5
:1002A000000F10D01EE0B9F1000F02D0B9F1100F0D
:1002B00018D1A969761E24F400747F1C0198884720
:1002C0008246102002E0082000E00A20814609E072
:1002D00008FB0908A969761E44F400747F1C019884
:1002E00088478246002E05DD4946504600F0EFFC67
:1002F0000028EDDAE96901988847A00502D46FF07B
:100300000100A8E7E00725D1600613D5600502D5F6
:10031000C8F1000000E0404629680A1D2A6009680B
:10032000220501D5087015E0220701D5088011E0EB
:1003300008600FE02868011D29600068210502D5CA
:1003400080F8008006E0210702D5A0F8008001E0D7
:10035000C0F8008038467EE72DE9FF5FD2E901A7AB
:100360004FF00008916999461446DDF838B04646CA
:1003700001988847054659EA0B0005D009E0A169B4
:10038000761C019888470546216A28468847002838
:10039000F5D1681C03D05FEACA7005D015E04FF0B4
:1003A000FF3004B0BDE8F09F2068011D2160D0F847
:1003B00000800AE05FEACA7001D108F8015BA16918
:1003C000761C7F1E019888470546002F1ADD681CA1
:1003D00018D0B9F1000F0DD0E81705EBD06042112D
:1003E00020F01F0059F822102A1A012090400142E3
:1003F000E0D107E0BBF1000FDCD1216A2846884735
:100400000028D7D0E16901988847BBF1000F07D1D8
:10041000002E05DD5FEACA7002D1002188F80010C5
:10042000A068B84203DDBBF1000F03D017B16FF035
:100430000100B6E73046B4E72DE9FF4F087883B0F6
:100440009946FF2805D0491C2D2804D000240020FF
:1004500008E000200BE00124F9E700EB800003EB4B
:100460004000491C0B78FF2BF7D104B14042002318
:100470000293147819461D462D2C01D02B2C04D143
:10048000521C2D2C13D000240294AA461478FF2C61
:100490000FD00A25A3FB057801FB05814FF0000C66
:1004A00003FB0C11521CE3194AEB0101EEE7012496
:1004B000EAE7814453EA010002D019F5C87F06DA61
:1004C00003980021C0E9001107B0BDE8F08F0025B6
:1004D000AE4E2F46DFF8B882184600F01EFDCDE97B
:1004E0000001B9F1000002DAC9F1000400E004469D
:1004F0000023A74A1AEB030B42EB045A12E0E00771
:1005000007D02A4633463846414600F024FA0746CB
:1005100088462A4633461046194600F01CFA05461E
:100520000E466410002CEAD1DDE90001B9F1000F9C
:100530005A46534606DA00F080FA3A46434600F03F
:100540007CFA05E000F007FA3A46434600F003FA69
:10055000029A0AB181F00041039AC2E90001B3E7AF
:100560002DE9FF4F1F468DB0D7E901464FF0FF3808
:100570002E2045464FF000090B90B9696D1C0E986E
:100580008847396A824688470028F6D1BAF1FF3F8A
:100590000AD024F4D064002E11DDBAF12B0F08D05C
:1005A000BAF12D0F0BD102E0404611B08DE744F4B3
:1005B0008064B9696D1C0E9888478246761E69462C
:1005C000600501D52D2000E02B208DF8000001F101
:1005D000010B0DF1200809E0B9696D1C0E988847E0
:1005E00082460F9844F40074761E0560002E02DDEA
:1005F000BAF1300FF0D00B998A453ED144F0800417
:1006000006E00F99681CA9F1010944F40074086020
:10061000B9696D1C761E0E98884782463028F0D046
:100620002BE00B998A4505D1200603D444F08004C1
:10063000761E18E0504603F085FA08B30DF1130159
:10064000761E44F400748B4508D2AAF130000BF8F2
:10065000010B200607D5A9F1010003E0200602D412
:1006600009F101008146A00502D50F99681C0860B8
:10067000B9696D1C0E9888478246002ED1DC53E084
:10068000002E51DDBAF1650F02D0BAF1450F4BD102
:10069000A00549D5B9696D1C24F44074761E0E98E6
:1006A00088478246002E0CDD2B2804D0BAF12D0F8E
:1006B00007D144F48074B9696D1C0E98884782464E
:1006C000761EE00501D52D2100E02B2108F8011B45
:1006D000CDF82C8021E00DF12901761E44F4007440
:1006E00088450CD2AAF1300010F0FF0088F8000015
:1006F00002D10B99884509D908F1010806E0E00507
:1007000001D5244801E042F20F708146B9696D1CA1
:100710000E98884782460F980560002E04DD5046EB
:1007200003F010FA0028D6D1F9690E988847FF2007
:100730008BF8000088F800000020069007904B46D8
:100740006A4608A906A8FFF777FEA00502D46FF055
:1007500001002AE714F0240F0AD0E00714D1DDE9E4
:1007600006123868031D3B600068C0E900120BE008
:10077000DDE9060100F01AFA0146E00704D1386805
:10078000021D3A600068016028460EE70000144030
:100790000000F03FF1D8FFFF2DE9F04791460F46EA
:1007A00080460446002614F8015B2DB100F082FA61
:1007B0000068405DC007F6D12B2D02D02D2D18D03A
:1007C000641E4A463946204600F0C4FA27B139680B
:1007D000A14201D1C7F8008071054FF002040BD58A
:1007E0004042002803DD03F0D7F80460A007BDE80D
:1007F000F08746F48066E4E70028F8DA03F0CCF8E6
:1008000004606FF00040F2E72DE9FE4F804681EA78
:100810000300C00F0C46009021F0004123F000457A
:10082000B8EB0200A94105D24046214690461C463D
:100830000B46024623F00040104347D0270DC7F374
:100840000A00C3F30A510290401A019040286BDA63
:10085000C3F3130040F4801B0098924620B100239C
:10086000D2EB030A63EB0B0B01985946C0F140022F
:10087000504600F0FEF906460D4650465946019A8C
:1008800000F006FA10EB08006141002487EA1152DB
:1008900084EAE7731A4340D0009A62B3019A012AAE
:1008A0004FEA075215DC001B61EB02014FF00042DA
:1008B00002EA0752CDE90042001C41F580113246A0
:1008C0002B4600F0DCFA03B0BDE8F08F404621462D
:1008D000F9E7001B61EB0201001C41F580130018D1
:1008E0005B412018A2F5001747EB030140EAD570E1
:1008F000B6196D4111E06D084FEA360645EAC0753C
:100900004FEA0752001B61EB0201001C41F5801108
:1009100049084FEA30000019514132462B4603B0D6
:10092000BDE8F04F00F09CBA00980122400000237F
:10093000D0EB020263EBE073009821464FEAE074CB
:10094000B8EB000061EB0401E9E783F000435BE7EB
:1009500081F0004158E72DE9FE4F81EA030404F0DD
:10096000004421F0004100944FF0000B23F00043BD
:1009700050EA01045ED052EA03045BD0C3F30A5488
:10098000C1F30A552C44A4F2F3340194A0FB0254A1
:10099000C1F3130141F48011C3F3130343F4801333
:1009A00001FB024400FB034E840A970A44EA815487
:1009B00047EA8357A4FB076802958D0A05FB078564
:1009C0004FEA932C04FB0C542705029D4FEA06586E
:1009D00047EA1637B5EB08056EEB070C870E920E4B
:1009E00047EA811742EA8312A7FB0201B6EB0B012B
:1009F00064EB00042B0D43EA0C335E1844EB1C50EF
:100A0000DA465146E7FB0201C5F313044FEA0B3304
:100A100043EA14534FEA0432019C43EA0603A4F16B
:100A20000C040294009CCDE900B400F028FA03B055
:100A3000BDE8F08F00200146F9E72DE9F04D81EA8D
:100A4000030404F0004B21F0004514464FF0000A67
:100A500023F0004150EA050220D054EA01021DD0E3
:100A6000C5F30A570246C5F31303C1F31300C1F3DC
:100A70000A5640F4801543F48013A7EB0608101BB8
:100A8000D64608F2FD3873EB050002D308F10108E1
:100A900001E092185B41B8F1000F03DA0020014633
:100AA000BDE8F08D00204FF48011064684460EE02C
:100AB000171B73EB050705D3121B63EB05030643F6
:100AC0004CEA010C49084FEA300092185B4150EAA9
:100AD0000107EDD152EA030012D082EA040083EA52
:100AE0000501084305D0101BAB4106D201220023AB
:100AF00006E000224FF0004302E06FF001025310C5
:100B00001AEB06004CEB085110EB0A0041EB0B010D
:100B1000BDE8F04D00F0A4B90EB5C10F80EAE07059
:100B20000844CA07002140F233438DE80E000A460C
:100B30000B4600F0A4F903B000BD0EB540F23341FE
:100B400002910021CDE900110A460B4600F097F909
:100B500003B000BDC1F30A5210B5C1F3130140F256
:100B6000FF3341F480119A4201DA002010BD40F2B7
:100B700033439A42A2F2334203DC5242FFF7D4FAE3
:100B800010BD904010BD00F0004230F000400AD08F
:100B9000C10D01F56071C0F3160042EA0151C208AF
:100BA00040071143704700200146704701F00043A1
:100BB00030B421F0004150EA010206D00A0DA2F53E
:100BC0006072C1F31301002A02DC30BC00207047C0
:100BD000440F44EAC104C100E01830BC00EBC2502D
:100BE00000F007B930B50B46014600202022012451
:100BF00009E021FA02F59D4205D303FA02F5491BEB
:100C000004FA02F52844151EA2F10102F1DC30BD00
:100C10002DE9F05F0546002092469B468846064631
:100C2000814640241BE02846414647462246FFF7BE
:100C30007BFA53465A46C01A914110D311461846C2
:100C4000224600F016F82D1A67EB01084F4622469F
:100C50000120002100F00DF817EB00094E41201E85
:100C6000A4F10104DFDC484631462A464346BDE88C
:100C7000F09F202A04DB203A00FA02F1002070479E
:100C80009140C2F1200320FA03F3194390407047CA
:100C9000202A06DBCB17203A41FA02F043EAE07340
:100CA00006E041FA02F3D040C2F12002914008432D
:100CB0001946704700487047F443000810B50446D1
:100CC000FFF7F8FF0068005D00F0010010BD3A2852
:100CD00000D2303820F02002412A01D3A2F137009F
:100CE000884201D34FF0FF30704700000268114482
:100CF0001378016018467047D16004495161044976
:100D0000116200211161114600F056B9ED0C000886
:100D1000BD0C0008426842B1016811F8013B23B1E3
:100D2000521EC0E90012184670470121C160881E9A
:100D3000704742685AB1C368016843B983688B42FF
:100D400005D0491E521CC0E90012002070474FF028
:100D5000FF3070472DE9F05F824600780027154686
:100D60008B460AF10104B946302801D09DB113E049
:100D700014F8010B0127782803D0582801D045B179
:100D80000AE00DB1102D07D10027102514F8010B32
:100D900002E0082500E00A250026B0460EE005FB2B
:100DA000080005FB06F1012701EB10461FFA80F849
:100DB000B6F5803F00D3B94614F8010B2946FFF77A
:100DC00086FF0028EBDABBF1000F05D00FB1641EDF
:100DD00000E05446CBF80040B9F1000F06D002F015
:100DE000DBFD02210160C81EBDE8F09F48EA064015
:100DF000FAE70029A8BF7047401C490008BF20F04F
:100E00000100704710B4B0FA80FC00FA0CF050EA10
:100E1000010404BF10BC704749B1CCF1200421FA91
:100E200004F411FA0CF118BF012121430843A3EB8C
:100E30000C01CB1D4FEA00614FEA102042BF002099
:100E400010BC704700EBC35010440029A4BF10BC75
:100E50007047401C490008BF20F0010010BC7047DB
:100E600010B5141E73F1000408DA401C41F10001B2
:100E700092185B411A4301D120F0010010BD2DE909
:100E8000F04D92469B4611B1B1FA81F202E0B0FA00
:100E900080F220329046FFF7ECFE04460F4640EA0F
:100EA0000A0041EA0B0153465A46084313D0114643
:100EB00053EA010019D0C8F140025046FFF734F957
:100EC00005460E46504659464246FFF7D2FE0843B5
:100ED00005D0012004E020463946BDE8F08D002011
:100EE000054346EAE0762C4337430A986305E40A53
:100EF000A0EB08000022FD0A44EA47540A3002D55C
:100F000000200146E9E7010510196941DDE90845BE
:100F100000196941BDE8F04DA2E70EB540F2334239
:100F200002920022CDE900221346FFF7A8FF03B08A
:100F300000BDC1F30A52C1F3130140F2FF3341F483
:100F400080119A4202DA00200146704740F2334392
:100F50009A42A2F2334202DC5242FFF7E5B8FFF7B1
:100F600088BE000030B5041E71F1000404DB4FF0B0
:100F70000044404264EB0101141E73F1000405DBE0
:100F80001C464FF00043524263EB0403994208BFF2
:100F9000904230BD064C074D06E0E06840F001038A
:100FA00094E8070098471034AC42F6D3FFF7A2F854
:100FB00064450008844500082DE9F34F8BB04FF0DD
:100FC000000801F10C000C464FF0010B46460DF1F4
:100FD000080A01906269012101989047051E2DD0F1
:100FE000252D2CD0216A8847C0B162690121019862
:100FF0009047216A88470028F7D1411E626901980D
:10100000904700E0761CA1690B988847216A8847C1
:101010000028F7D1E1690B988847DBE7A1690B98B5
:1010200088470746A84201D1761CD3E7E1690B98AF
:1010300088477F1C02D1B8F1000F6FD047E100272D
:1010400062693D463946019890472A2804D1626971
:101050000121019890470125DFF8889262690121FA
:1010600001989047A0F130010A290AD24F45E5DCEA
:1010700007EB870100EB4107303FDFD445F0100557
:10108000ECE7E90601D46FF000476C280AD04C2841
:1010900014D0682815D06A280DD074281CD07A285E
:1010A0001AD01DE062690121019890476C2802D096
:1010B00045F0040514E045F002050DE045F020057B
:1010C0000AE06269012101989047682802D045F042
:1010D000080505E045F40065626901210198904723
:1010E000C4E9015765283DD019DC58287AD00CDCBA
:1010F000452837D004DC252826D0412831D131E0DD
:1011000046282FD047282CD12CE05B2877D06128A7
:1011100028D063287CD0642823D15AE0D1E06F28FE
:1011200048D008DC66281DD067281BD0692821D04C
:101130006E2816D127E0702845D0732868D075280E
:1011400047D078280DD14DE0A1690B988847054616
:1011500025283FF469AFE1690B9888476D1C3FF47F
:101160006AAFB4E023466A466FF001000B99FFF7BF
:10117000F7F99FE045F040006060A80723464FF074
:10118000000236D43EE0E8077FF447AF2068011D37
:1011900021600068290501D506701BE7290701D5E4
:1011A000068017E7A90703D5F117C0E9006111E729
:1011B00006600FE745F040006060A80723464FF047
:1011C000080216D41EE040F60E0125EA0100606018
:1011D00016E045F040006060A80723464FF00A0281
:1011E00007D40FE045F040006060A80708D523460B
:1011F00010226FF001000B99AFF300805AE007E076
:10120000234610226FF001000B99FEF7FFFF51E01B
:101210004FF000094F464B46632802D05B2807D0A9
:1012200041E02079C00601D40120A06001273AE006
:1012300062690121019890475E2805D14FF00109AC
:101240006269494601989047216939B900210A46E7
:10125000534643F82120491C0829FADBB0B3216921
:1012600069B9C11700EBD16253110AEB830122F077
:101270001F02821A01200B68904003430B606269D1
:101280000121019890475D28E8D1B9F1000F09D0FC
:101290000020514651F82020D24341F82020401C24
:1012A0000828F7DB02AB224600976FF001000B998C
:1012B000FFF752F800280CDA401C08D1BBF1000FF0
:1012C00005D04FF0FF300DB0BDE8F08FFFE740468E
:1012D000F9E7E90701D108F1010806444FF0000BD6
:1012E00078E60000CCCCCC0C00BFFEE7704772B6AD
:1012F00000BFFEE72DE9FC4704462A212046FEF701
:1013000053FF064616B12078242802D00020BDE8FD
:10131000FC870025012002E0215C4D40401C311B70
:101320008142F9DC002001900222711C01A8FEF725
:101330002FFF1022002101A8FFF72EFAC7B22F219C
:101340001DA0FEF73BFF28B12F211BA0FEF736FFA3
:10135000401C00E018A081465C21FEF72FFF88B1F9
:101360002F2115A0FEF72AFF28B12F2112A0FEF78A
:1013700025FF401C00E010A081465C21FEF71EFF07
:10138000401C0BE02F210CA0FEF718FF28B12F21E5
:1013900009A0FEF713FF401C00E007A080462B4683
:1013A0004A2241460AA0009702F0CAFABD4201D182
:1013B0000120ACE70020AAE7696E7465726661637C
:1013C000655C496E745F415436353538522E630082
:1013D0005B25733A25645D636865636B5F6E756D4D
:1013E0003A253032782C636865636B5F73756D5F87
:1013F0006E756D3A253032780D0A000070B50446DE
:10140000062510A12046FEF7B1FE00B100250EA171
:101410002046FEF7ABFE00B101250CA12046FEF7E9
:10142000A5FE00B102250AA12046FEF79FFE00B1ED
:10143000042508A12046FEF799FE00B1052528469F
:1014400070BD0000524D43005654470047474100CD
:1014500047535600545854002DE9F04188B00646D1
:1014600005A806AB07AA29A100903046FEF7B2FEF8
:101470000598FFF788FB04460D462F212EA0FEF7A6
:101480009DFE28B12F212CA0FEF798FE401C00E005
:1014900029A080465C21FEF791FE88B12F2126A06D
:1014A000FEF78CFE28B12F2123A0FEF787FE401CFB
:1014B00000E021A080465C21FEF780FE401C0BE08E
:1014C0002F211DA0FEF77AFE28B12F211AA0FEF7CA
:1014D00075FE401C00E018A00746CDE902459DF8C6
:1014E000180000909DF81C309522394618A002F093
:1014F00027FA9DF81C0030B19DF818001C4981F8AE
:1015000026000598486108B0BDE8F08124474E47A1
:1015100047412C252A662C252A662C252A632C2552
:101520002A662C252A632C2020256868752C2568BE
:1015300068752C2566000000696E746572666163CB
:10154000655C496E745F415436353538522E630000
:101550005B25733A25645D66733A25642C6E756D60
:1015600053763A25642C48444F503A25660D0A00BC
:10157000480100202DE9F14F96B011A809A90AAA47
:101580000DABCDE90132CDE903100EA810AB13AAC3
:10159000A9A100901698FEF71DFE2F21B2A0FEF71C
:1015A0000DFE28B12F21B0A0FEF708FE401C00E080
:1015B000ADA005465C21FEF701FE88B12F21AAA04F
:1015C000FEF7FCFD28B12F21A7A0FEF7F7FD401C78
:1015D00000E0A5A005465C21FEF7F0FD401C0BE0F5
:1015E0002F21A1A0FEF7EAFD28B12F219EA0FEF732
:1015F000E5FD401C00E09CA004469DF824000890F6
:10160000DDE90A01CDE906019DF834000490DDE929
:101610000E01CDE902019DF8400013A911AB5F2234
:10162000CDE900102146964802F08AF99DF8400065
:1016300041287CD10120934981F827009DF848007A
:10164000C8779DF849108F4880F820109DF8461003
:1016500080F821109DF8471080F822109DF8441062
:1016600080F823109DF8451080F824109DF84C0058
:10167000844908769DF84D10824841769DF84E10B9
:1016800081769DF84F10C1769DF8501001779DF836
:10169000511041779DF834007A4908719DF8240073
:1016A00008730022784BDDE90E01FFF7C6F980468A
:1016B000FFF750FAC0B2642148430390FFF72CFAB9
:1016C0000646DDE90E23FFF743F9044600226F4B7F
:1016D000FFF7B3F900226C4BCDE90601DDE90E01FD
:1016E000FFF7ABF90446FFF735FAC6B23046FFF70D
:1016F00024FACDE90401DDE90623FFF785F88246E7
:10170000FFF754FA5F49086000225F4BDDE90A01E8
:10171000FFF793F9CDE90201FFF71CFAC0B264218B
:1017200000FB01FA5046FFF7F7F9064600E077E0C4
:10173000DDE90A23FFF70CF980460022534BFFF73F
:101740007CF904460D4600224F4BDDE90A01FFF704
:1017500074F90646FFF7FEF900F0FF084046FFF770
:10176000ECF922462B46CDE90401FFF74DF8CDE90F
:101770000601FFF71BFA4349886000F0DFFA414990
:1017800088628868FFF7FFF904460D463D490868FE
:10179000FFF7F9F906460F462F2133A0FEF70EFD9D
:1017A00028B12F2130A0FEF709FD401C00E02EA03B
:1017B00081465C21FEF702FD88B12F212AA0FEF7A9
:1017C000FDFC28B12F2128A0FEF7F8FC401C00E00A
:1017D00025A081465C21FEF7F1FC401C0BE02F2187
:1017E00021A0FEF7EBFC28B12F211FA0FEF7E6FC9D
:1017F000401C00E01CA080462248007BCDE9064545
:10180000089020480079CDE9026704901D481830FF
:10181000C31D7F22414600901D4802F091F807E069
:101820009DF84000562803D10020164981F8270072
:1018300017B0BDE8F08F000024474E524D432C25D1
:101840003663252A34632C25632C256C662C25638E
:101850002C256C662C25632C2020252A662C252A15
:10186000662C253663000000696E746572666163DC
:10187000655C496E745F415436353538522E6300CD
:10188000F8430008480100200000594000004E4085
:10189000584400082DE9FE430646344600253EE044
:1018A00041A12046FEF762FC0446641C2F213FA0A4
:1018B000FEF784FC28B12F213CA0FEF77FFC401CE2
:1018C00000E03AA080465C21FEF778FC88B12F2129
:1018D00036A0FEF773FC28B12F2134A0FEF76EFC72
:1018E000401C00E031A080465C21FEF767FC401CF4
:1018F0000BE02F212DA0FEF761FC28B12F212BA09A
:10190000FEF75CFC401C00E028A007462B46AA22FC
:1019100039462CA0009402F013F8681CC5B2072DBC
:10192000BEDB02AA2BA12046FEF754FC0298FFF76B
:101930002AF9074688462F211CA0FEF73FFC28B154
:101940002F211AA0FEF73AFC401C00E017A08146A8
:101950005C21FEF733FC88B12F2114A0FEF72EFC8A
:1019600028B12F2111A0FEF729FC401C00E00FA098
:1019700081465C21FEF722FC401C0BE02F210BA0CE
:10198000FEF71CFC28B12F2108A0FEF717FC401C15
:1019900000E006A00546AD2229460FA0CDE900785B
:1019A00001F0CEFFBDE8FE832C000000696E746577
:1019B00072666163655C496E745F415436353538D3
:1019C000522E63005B25733A25645D25643A2573C6
:1019D0000D0A0000256600005B25733A25645D6BE7
:1019E00070673A25660D0A0070B5044600F0A6F946
:1019F00006462546681C10B104480078054400BF1F
:101A000000F09CF9801BA842FAD370BD08000020AA
:101A10002DE9F8470346002294466EE14FF0010895
:101A200008FA02F4D1F8008008EA0400A0427DD14F
:101A3000DFF8DCA2D1F80480A8EB0A09D0453AD03F
:101A400014DCB8F1030F50D009DCB8F1000F31D02D
:101A5000B8F1010F1CD0B8F1020F49D120E0B8F164
:101A6000110F18D0B8F1120F42D11EE0B9F5881F3E
:101A700025D006DCB9F5803F20D0B9F5801F37D1DD
:101A80001AE0B9F5001F18D0B9F5041F30D117E0DE
:101A9000D1F80CC02DE0D1F80C8008F1040C28E03E
:101AA000D1F80C8008F1080C23E0D1F80C8008F183
:101AB0000C0C1EE000BF00BF00BF00BF00BF00BF96
:101AC000D1F80880B8F1000F02D14FF0040C0BE000
:101AD000D1F80880B8F1010F03D14FF0080C1C6158
:101AE00002E04FF0080C5C6103E04FF0000C00E0F6
:101AF00000BF00BFFF2801D8984601E003F10408A9
:101B00004646FF2802D84FEA820803E0A2F10808FF
:101B10004FEA88084746D6F800804FF00F0909FAC7
:101B200007F928EA09080CFA07F900E088E048EA12
:101B30000908C6F80080D1F8048008F08058B8F190
:101B4000805F7DD100BFDFF8CC81D8F8188048F0E5
:101B50000108DFF8C091C9F81880C846D8F8188085
:101B600008F00108CDF8008000BF00BF4FEAB93887
:101B70004FEA920958F829504FEA82784FEA1879CB
:101B80004FF00F0808FA09F825EA0805DFF8888100
:101B9000434502D14FF0000816E0DFF8808143454D
:101BA00002D14FF001080FE0DFF87481434502D104
:101BB0004FF0020808E0DFF86C81434502D14FF096
:101BC000030801E04FF004084FEA82794FEA1979DF
:101BD00008FA09F848EA0505DFF84C814FEA92094E
:101BE00048F82950D1F8048008F48018B8F5801F0F
:101BF0000AD1DFF83881D8F8008048EA0008DFF819
:101C00002C91C9F8008009E0DFF82081D8F8008025
:101C100028EA0008DFF81491C9F80080D1F80480A0
:101C200008F40018B8F5001F10D1DFF8008108F1A2
:101C30000408D8F8008048EA0008DFF8F09000E0D7
:101C40005AE009F10409C9F800800DE0DFF8DC80F2
:101C500008F10408D8F8008028EA0008DFF8CC90E2
:101C600009F10409C9F80080D1F8048008F40038AB
:101C7000B8F5003F0ED1DFF8B480A8F10408D8F819
:101C8000008048EA0008DFF8A490A9F10409C9F827
:101C900000800DE0DFF89480A8F10408D8F80080F7
:101CA00028EA0008DFF88490A9F10409C9F8008047
:101CB000D1F8048008F48038B8F5803F0ED1DFF801
:101CC0006C80A8F10808D8F8008048EA0008DFF81E
:101CD0005C90A9F10809C9F800800DE0DFF84C809C
:101CE000A8F10808D8F8008028EA0008DFF83C903E
:101CF000A9F10809C9F80080521CD1F8008028FA1F
:101D000002F8B8F1000F7FF489AEBDE8F887000053
:101D1000000011100010024000080140000C0140BA
:101D20000010014000140140080001400804014077
:101D30000AB1016101E00B040361704701480068CA
:101D4000704700000000002070B504460CB9012067
:101D500070BD94F83D0028B9002084F83C0020466E
:101D600000F0DAF8242084F83D002068006820F0B4
:101D70000100216808602068006840F40040216884
:101D800008602068006820F400402168086000F0C6
:101D90008BFA05465C496068884206D85B488542F4
:101DA00001D2012007E0002005E05948854201D218
:101DB000012000E00020012800D1C9E75548B5FB0B
:101DC000F0F62068406820F03F003043216848600A
:101DD0004D496068884201D8701C07E04FF4967046
:101DE00070434FF47A71B0FBF1F0401C2168096A2E
:101DF00021F03F0108432168086243496068884236
:101E000014D8681E61684900B0FBF1F0401CC0F3B3
:101E10000B00042801D204203DE0681E61684900DF
:101E2000B0FBF1F0401CC0F30B0034E0A06838B9FF
:101E3000681E616801EB4101B0FBF1F0401C0AE053
:101E4000681E616801EBC10202EB0111B0FBF1F009
:101E5000401C40F48040C0F30B0008B901201AE098
:101E6000A06848B9681E616801EB4101B0FBF1F060
:101E7000401CC0F30B000CE0681E616801EBC1025E
:101E800002EB0111B0FBF1F0401CC0F30B0040F479
:101E9000804040F400402168C9694CF6FF729143CC
:101EA00008432168C861D4E907010843216809682B
:101EB00021F0C001084321680860D4E903100843F9
:101EC0002168896848F2FF3291430843216888609D
:101ED000D4E9050108432168C96821F0FF010843DE
:101EE0002168C8602068006840F00100216808602F
:101EF00000202064202084F83D000020206384F826
:101F00003E0000BF24E70000A086010080841E0080
:101F100000093D0040420F0010B586B00446002085
:101F2000029003900490059015492068884225D1BD
:101F300000BF1448806940F00800124988610846D3
:101F4000806900F00800019000BF00BFC02002902F
:101F5000122003900320059002A90B48FFF758FDBB
:101F600000BF0848C06940F400100649C86108462F
:101F7000C06900F40010019000BF00BF06B010BDA2
:101F80000054004000100240000C0140034800686B
:101F9000034909780844014908607047000000209F
:101FA0000800002010B50848006840F010000649FD
:101FB0000860032000F098F80F2000F007F800F008
:101FC0002BF8002010BD00000020024070B5044630
:101FD0000E4800784FF47A71B1FBF0F00C490968B3
:101FE000B1FBF0F5284600F0E9FB08B1012070BD17
:101FF000102C07D200222146501E00F037F8054869
:10200000046001E00120F2E70020F0E70800002072
:102010000C0000200400002008B500BF11488069B2
:1020200040F001000F4988610846806900F0010016
:10203000009000BF00BF00BF0846C06940F080505C
:10204000C8610846C06900F08050009000BF00BF22
:1020500000BF0549486820F0E06040F0007048602B
:1020600000BF08BD00100240000001402DE9F05FF4
:1020700080460D461646002701F072FC0746394699
:102080002A46334601F00700C0F1070ABAF1040FEF
:1020900002D94FF0040A01E0C0F1070AD14600F16D
:1020A000040ABAF1070F02D24FF0000A01E0A0F1D2
:1020B000030AD4464FF0010A0AFA09FAAAF1010A02
:1020C0000AEA020A0AFA0CFA4FF0010B0BFA0CFBAF
:1020D000ABF1010B0BEA030B4AEA0B042146404625
:1020E00001F046FCBDE8F09F00BF00F00702064B80
:1020F00019684FF6FF031940044B0B4343EA0221D2
:10210000014B196000BF70470CED00E00000FA05BC
:1021100070B504460D460CB9012070BD5A480068E0
:1021200000F00700A8420ED25748006820F00700D0
:102130002843554908600846006800F00700A84297
:1021400001D00120E9E7207800F0020002281DD12B
:10215000207800F00400042805D14C48406840F481
:10216000E0604A494860207800F00800082805D15E
:102170004648406840F460504449486043484068DD
:1021800020F0F000A168084340494860207800F042
:10219000010078B36068012806D13C48006800F46B
:1021A000003090B90120B8E76068022806D13748AE
:1021B000006800F0007040B90120AEE733480068C5
:1021C00000F0020008B90120A7E73048406820F07D
:1021D0000300616808432D494860FFF7AFFD0646DC
:1021E00009E0FFF7ABFD801B41F28831884202D93C
:1021F000032092E707E02548406800F00C00616882
:10220000B0EB810FEDD12048006800F00700A84234
:102210000ED91D48006820F0070028431A490860BD
:102220000846006800F00700A84201D0012074E7CA
:10223000207800F00400042807D11448406820F4F6
:10224000E060E168084311494860207800F0080028
:10225000082808D10D48406820F46050216940EA00
:10226000C1000A49486000F03FF808494968C1F3D5
:102270000311074A515CC8400649086006480068D7
:10228000FFF7A4FE002048E70020024000100240B3
:102290005A4300080C000020040000200148006898
:1022A000704700000C00002000B5FFF7F7FF04495D
:1022B0004968C1F30221034A515CC84000BD0000D7
:1022C000001002406A43000800B5FFF7E7FF044929
:1022D0004968C1F3C221034A515CC84000BD0000F7
:1022E000001002406A43000870B50021002200245B
:1022F00000230020134D696801F00C05F5B1042D91
:1023000002D0082D19D101E00F4819E00F4DC1F39B
:102310008346AB5D01F4803555B10A4D6D68C5F358
:1023200040450B4E725D084D5D43B5FBF2F402E093
:10233000084D03FB05F4204602E000BF024800BF41
:1023400000BF70BD0010024000127A004843000830
:102350005843000800093D00F8B504460CB90120B7
:10236000F8BD207800F00100002878D0F8484068D7
:1023700000F00C0004280CD0F548406800F00C0078
:10238000082811D1F248406800F48030B0F5803F51
:102390000AD1EF48006800F4003000285FD0606880
:1023A00000285CD10120DBE700BF6068B0F5803F0A
:1023B00006D1E748006840F48030E549086028E02D
:1023C000606858B9E248006820F48030E04908604D
:1023D0000846006820F4802008601AE06068B0F5C4
:1023E000A02F0BD1DA48006840F48020D84908605B
:1023F0000846006840F4803008600AE0D44800686D
:1024000020F48030D24908600846006820F480201B
:10241000086000BF606888B1FFF790FC054606E0E1
:10242000FFF78CFC401B642801D9032098E7C848BB
:10243000006800F400300028F2D010E0FFF77EFCC6
:10244000054606E0FFF77AFC401B642801D903200B
:1024500086E7BF48006800F400300028F2D12078F9
:1024600000F00200022857D1B948406800F00C0083
:1024700050B1B748406800F00C00082818D1B448A3
:10248000406800F4803098B9B148006800F002005C
:1024900020B12069012801D0012061E7AC48006823
:1024A00020F0F800616940EAC100A949086033E002
:1024B0002069E8B10120A7490860FFF73FFC054605
:1024C00006E0FFF73BFC401B022801D9032047E749
:1024D0009F48006800F002000028F2D09C48006885
:1024E00020F0F800616940EAC1009949086013E0F2
:1024F000002098490860FFF721FC054606E0FFF739
:102500001DFC401B022801D9032029E790480068E0
:1025100000F002000028F2D1207800F0080008281E
:102520002DD1A069B8B101208B490860FFF706FCE6
:10253000054606E0FFF702FC401B022801D90320F4
:102540000EE78348406A00F002000028F2D0012024
:1025500000F0ACFF13E000207F490860FFF7EEFBBE
:10256000054606E0FFF7EAFB401B022801D90320DD
:10257000F6E67748406A00F002000028F2D12078A1
:1025800000F00400042873D100277148C06900F0EE
:10259000805070B900BF6E48C06940F080506C49EF
:1025A000C8610846C06900F08050009000BF00BFBD
:1025B00001276A48006800F48070B0B96748006875
:1025C00040F4807065490860FFF7B8FB054606E0F7
:1025D000FFF7B4FB401B642801D90320C0E65F4825
:1025E000006800F480700028F2D000BFE068012885
:1025F00006D15748006A40F001005549086227E0BB
:10260000E06858B95248006A20F001005049086259
:102610000846006A20F00400086219E0E068052816
:102620000BD14B48006A40F0040049490862084653
:10263000006A40F0010008620AE04548006A20F0A4
:102640000100434908620846006A20F0040008625D
:1026500000BFE068A0B1FFF771FB054609E0FFF796
:102660006DFB401B41F28831884202D9032077E696
:1026700022E03748006A00F002000028EFD012E0A4
:10268000FFF75CFB054608E0FFF758FB401B41F2F3
:102690008831884201D9032062E62D48006A00F0A3
:1026A00002000028F0D1012F05D12948C06920F08F
:1026B00080502749C86100BFE069C8B3244840681A
:1026C00000F00C00082860D0E069022848D1002002
:1026D00020490866FFF732FB054606E0FFF72EFBB0
:1026E000401B022801D903203AE61948006800F08F
:1026F00000700028F2D1206AB0F5803F07D114485D
:10270000406820F40030A168084311494860D4E9CA
:10271000080108430E49496821F4741108430C4923
:10272000486001200B490866FFF708FB054607E0F3
:102730003DE0FFF703FB401B022801D903200FE611
:102740000348006800F000700028F2D02FE000007D
:1027500000100240000042428004424200700040EB
:10276000002014490866FFF7E9FA054606E0FFF77E
:10277000E5FA401B022801D90320F1E50E48006864
:1027800000F000700028F2D111E0E069012800D1CA
:10279000E6E50948466806F48031206A814204D1A2
:1027A00006F47011606A814201D00120D8E5002052
:1027B000D6E50000000042420010024070B5044619
:1027C0002546681EB0F1807F01D301200FE0681E0E
:1027D0004FF0E02148610F214FF0FF3001F0C8F8C1
:1027E00000204FF0E021886107200861002070BDC3
:1027F00030B502460B4600BF92F83C00012801D1DB
:10280000022030BD012082F83C0000BF022082F887
:102810003D00106844681068816824F070041868EE
:10282000044310684460104D1068A8420BD0106833
:10283000B0F1804F07D00D4D1068A84203D00C4D69
:102840001068A84205D121F0800158680143106842
:102850008160012082F83D0000BF002082F83C002A
:1028600000BF00BFCDE70000002C01400004004085
:102870000008004010B504460CB9012010BD94F8C2
:102880003D0028B9002084F83C00204600F026F8DE
:10289000022084F83D00211D206800F055FE012033
:1028A00084F8460000BF84F83E0001213F20015516
:1028B000402001554120015500BF00BF012084F890
:1028C000420043200155442001554520015500BFD9
:1028D000012084F83D000020D0E7000008B5094A37
:1028E000016891420DD100BF0749C96941F0020159
:1028F000054AD1611146C96901F00201009100BF8A
:1029000000BF08BD00040040001002402DE9F04166
:1029100004460D46002700BF94F83C00012802D170
:102920000220BDE8F081012084F83C0000BF0220B5
:1029300084F83D002068866826F0770626F47F46F6
:10294000206886602868502833D00CDC202850D0BE
:1029500004DC00284BD0102851D149E0302849D060
:1029600040284CD139E060282DD0702807D0B0F530
:10297000805F03D0B0F5005F41D10DE041E0D5E9C3
:1029800002136A68206800F019FE2068866846F025
:1029900077062068866034E0D5E902136A6820680B
:1029A00000F00CFE2068806840F480402168886058
:1029B00027E0EA686968206800F0D0FE50212068AE
:1029C00000F007FE1DE0EA686968206800F0D9FEA3
:1029D0006021206800F0FDFD13E0EA686968206866
:1029E00000F0BCFE4021206800F0F3FD09E000BFCC
:1029F00000BF00BF2968206800F0EBFD01E001275F
:102A000000BF00BF012084F83D0000BF002084F813
:102A10003C0000BF384684E710B586B0044600206D
:102A2000029003900490059013492068884221D1B8
:102A300000BF1248806940F00800104988610846CC
:102A4000806900F00800019000BF00BF10200290D4
:102A500002200390059002A90948FEF7D9FF00BFA4
:102A60000849486820F4406040F0E06040F40060AD
:102A7000486000BF06B010BD0004004000100240D6
:102A8000000C0140000001402DE9F04104460D46D4
:102A90001646002700BF94F83C00012802D102200E
:102AA000BDE8F081012084F83C0000BF36B1042E5F
:102AB0001BD0082E31D00C2E5ED145E0294620686F
:102AC00000F090FD2068806940F00800216888616E
:102AD0002068806920F0040021688861206880698E
:102AE000296908432168886148E02946206800F088
:102AF000A9FD2068806940F4006021688861206831
:102B0000806920F480602168886120688069296973
:102B100040EA01202168886130E02946206800F001
:102B2000C5FD2068C06940F008002168C8612068C0
:102B3000C06920F004002168C8612068C069296963
:102B400008432168C86119E02946206800F0E2FDC9
:102B50002068C06940F400602168C8612068C069CD
:102B600020F480602168C8612068C069296940EA52
:102B700001202168C86101E0012700BF00BF00BF3C
:102B8000002084F83C0000BF384689E710B50446B1
:102B90000CB9012010BD94F83D0028B9002084F83C
:102BA0003C00204600F025F8022084F83D00211D5D
:102BB000206800F0C9FC012084F8460000BF84F8BA
:102BC0003E0001213F200155402001554120015583
:102BD00000BF00BF012084F842004320015544207B
:102BE00001554520015500BF012084F83D0000201B
:102BF000D0E770472DE9F84F04460F4690461D4632
:102C0000DDF828A094F84200202878D117B1B8F157
:102C1000000F02D10120BDE8F88F0020606422205F
:102C200084F842000120206300206063FFF786F8EB
:102C30008346A4F82C80A4F82E80A068B0F5805FAD
:102C400004D1206910B90026B94602E03E464FF093
:102C500000090020288053E02068006800F0100080
:102C6000102813D100BF0020009020680068009059
:102C700020684068009000BF00BF288830B1022063
:102C80006063202084F842000020C4E720680068C8
:102C900000F02000202821D146B920684068C0F308
:102CA0000800A9F8000009F1020911E0A068B0F5D8
:102CB000805F03D0A06828B9206918B920684068EF
:102CC000307004E02068406800F07F003070761CAF
:102CD0002888401C2880E08D401EE0850AF1010014
:102CE00070B1FFF72BF8A0EB0B00504502D8BAF1FA
:102CF000000F05D1202084F8420003208BE70BE071
:102D0000E08D0028A8D1A08DE18D401A28802020D8
:102D100084F8420000207EE702207CE710B50446DC
:102D20000CB9012010BDA06900B100E000BF94F80B
:102D3000410028B9002084F84000204600F02AF81D
:102D4000242084F841002068C06820F400502168E5
:102D5000C860204600F02AFD2068006920F49040F9
:102D6000216808612068406920F02A0021684861D4
:102D70002068C06840F400502168C860002060648A
:102D8000202084F8410084F842000020606300BFE6
:102D9000C8E7000010B586B00446002002900390FA
:102DA000049005903349206888422FD100BF3248F3
:102DB000806940F48040304988610846806900F4A9
:102DC0008040019000BF00BF00BF0846806940F00E
:102DD000040088610846806900F00400019000BF8B
:102DE00000BF48150290022003900320059002A91D
:102DF0002248FEF70DFE4FF4806002900020039001
:102E0000049002A91D48FEF703FE31E01C4920682A
:102E100088422DD100BF1848C06940F400301649DF
:102E2000C8610846C06900F40030019000BF00BFCF
:102E300000BF0846806940F0040088610846806948
:102E400000F00400019000BF00BF042002900220A7
:102E500003900320059002A90848FEF7D9FD082039
:102E6000029000200390049002A90448FEF7D0FDD0
:102E700006B010BD003801400010024000080140BB
:102E8000004400402DE9F84F04460E461746994687
:102E90004FF0000A94F8410020284AD106B117B932
:102EA0000120BDE8F88F00206064212084F84100F3
:102EB000FEF744FF8246A784E784A068B0F5805FF0
:102EC00004D1206910B90025B04602E035464FF024
:102ED00000081BE05346002280212046CDF80090D8
:102EE00000F0E2FC08B10320DBE745B9B8F80000C8
:102EF000C0F308002168486008F1020803E0287860
:102F0000216848606D1CE08C401EE084E08C002845
:102F1000E0D15346002240212046CDF8009000F039
:102F2000C3FC08B10320BCE7202084F84100002046
:102F3000B7E70220B5E700BFFEE770472DE9F84389
:102F40004FF400716548FDF706F9002064490880D8
:102F50004FF47A700B464FF400726049009061485C
:102F6000FFF748FE5E48008800286FDD5E4FAFE047
:102F70005EA13846FDF7FAF804465DA13846FDF734
:102F8000F5F805460CB1002D35D12F2159A0FDF7DC
:102F900015F928B12F2157A0FDF710F9401C00E0CA
:102FA00054A080465C21FDF709F988B12F2151A07A
:102FB000FDF704F928B12F214EA0FDF7FFF8401CC2
:102FC00000E04CA080465C21FDF7F8F8401C0BE0C7
:102FD0002F2148A0FDF7F2F828B12F2145A0FDF7D9
:102FE000EDF8401C00E043A00646CE22314647A043
:102FF00000F0A6FC6DE0281B401C4A4908800846EA
:103000000088802801DD8020088080214648FDF767
:10301000A2F84448028821464348FDF7B9F84248DF
:10302000FEF768F9E8B14048FEF7E8F90646062ED3
:1030300014D2DFE806F003070C1011123A48FEF72D
:1030400099FA0CE03848FEF725FC08E043E03648E2
:10305000FEF702FA03E002E001E000E000BF00BF7B
:1030600034E02F2123A0FDF7A9F828B12F2121A0BA
:10307000FDF7A4F8401C00E01EA080465C21FDF78F
:103080009DF888B12F211BA0FDF798F828B12F21BA
:1030900018A0FDF793F8401C00E016A080465C21C4
:1030A000FDF78CF8401C0BE02F2112A0FDF786F8ED
:1030B00028B12F210FA0FDF781F8401C00E00DA0E2
:1030C0000646FB22314619A000F03AFC6F1C00BFF7
:1030D0004EE700BF00BFBDE8F88300007401002088
:1030E0001000002000010020A84400082400000077
:1030F0000A000000696E746572666163655C496E02
:10310000745F415436353538522E63005B25733A6F
:1031100025645D475053CAFDBEDDBDE1CAF80D0A06
:103120000000000012000020740300205B25733AA9
:1031300025645D475053CAFDBEDDD0A3D1E9CAA7BF
:10314000B0DC0D0A00000000002839D139490968B7
:1031500041F40041374A116000BF00BF00BF00BF0B
:1031600000BF00BF00BF00BF00BF00BF00BF00BF67
:1031700000BF00BF00BF2F49096821F400412D4A5C
:10318000116000BF00BF00BF00BF00BF00BF00BF95
:1031900000BF00BF00BF00BF00BF00BF00BF00BF37
:1031A00000BF00BF00BF00BF00BF00BF00BF00BF27
:1031B00000BF00BF00BF00BF00BF00BF00BF38E0BE
:1031C0001C49096841F400411A4A116000BF00BF60
:1031D00000BF00BF00BF00BF00BF00BF00BF00BFF7
:1031E00000BF00BF00BF00BF00BF00BF00BF00BFE7
:1031F00000BF00BF00BF00BF00BF00BF00BF00BFD7
:1032000000BF00BF00BF00BF0A49096821F40041A8
:10321000084A116000BF00BF00BF00BF00BF00BF71
:1032200000BF00BF00BF00BF00BF00BF00BF00BFA6
:1032300000BF70470C08014070B5054600240EE041
:10324000C4F1170101208840284018B10120FFF780
:103250007BFF02E00020FFF777FF601CC4B2182C50
:10326000EEDB70BD00B585B00020019002900390A8
:10327000049000BF3248806940F0100030498861F6
:103280000846806900F01000009000BF00BF00BF3A
:103290000846806940F0200088610846806900F097
:1032A0002000009000BF00BF00BF0846806940F0CA
:1032B000040088610846806900F00400009000BFA7
:1032C00000BF00BF0846806940F0080088610846DA
:1032D000806900F00800009000BF00BF00224FF49A
:1032E00000411848FEF724FD012220211648FEF770
:1032F0001FFD4FF48050019014480290012003906C
:1033000001A91048FEF784FB4FF400400190012012
:103310000290002003900320049001A90948FEF7C1
:1033200077FB2020019001200290002003900320D1
:10333000049001A90448FEF76BFB05B000BD000036
:103340000010024000080140000C01400000211064
:1033500010B50B480B4908600B484860002109482C
:103360008160C1604FF48041016100214161816150
:10337000C1610162FEF7E8FC08B1FDF7B8FF10BDBE
:10338000005400401C000020A086010000B58DB054
:10339000002009900A900B900C90079008901C2137
:1033A0006846FCF7D8FE20482049086041F61F40D7
:1033B000486000211D4881601321C1600021016126
:1033C0008161FFF757FA08B1FDF791FF4FF4805084
:1033D000099009A91548FFF799FA08B1FDF787FF89
:1033E0001248FFF7D3FB08B1FDF781FF00200790DB
:1033F000089007A90D48FFF7FBF908B1FDF777FF23
:10340000602000900A200190002002900490002289
:1034100069460648FFF738FB08B1FDF768FF034827
:10342000FFF7FAFA0DB000BD000400407000002064
:1034300010B50B480B4908604FF4E130486000219B
:1034400008488160C16001610C21416100218161F6
:10345000C161FFF763FC08B1FDF749FF10BD000033
:1034600000380140B800002010B50B480B49086037
:103470004FF416504860002108488160C160016126
:103480000C21416100218161C161FFF747FC08B156
:10349000FDF72DFF10BD000000440040000100209A
:1034A00000BFFEE700BFFEE77047000008B508490F
:1034B0000968C9084FF47A72B1FBF2F141430091F7
:1034C00000BF00BF00994A1E00920029F9D108BD33
:1034D0000C000020704710B5FEF758FD10BD00B578
:1034E0008FB0282105A8FCF736FE14216846FCF7AA
:1034F00032FE012005900004069000200790012074
:10350000099002200C90C1030D914FF4E0110E912F
:1035100005A8FEF721FF08B1FDF7E9FE0F20009096
:1035200002200190002002904FF480600390002060
:10353000049002216846FEF7EBFD08B1FDF7D7FEC7
:103540000FB000BD7047000010B50268184B9842DC
:1035500008D0B0F1804F05D0164B984202D0164BE0
:10356000984203D122F070024B681A43104B9842E4
:1035700008D0B0F1804F05D00E4B984202D00E4BD0
:10358000984203D122F44072CB681A4322F08003A0
:103590004C6943EA040202608B68C3620B68836271
:1035A000034B984201D10B6903630123436110BDB2
:1035B000002C0140000400400008004030B50C46DB
:1035C000816821F47F4142EA032525432943816034
:1035D00030BD0A46816821F0700142F007031943AB
:1035E0008160704730B5026A056A25F00105056201
:1035F0004368846924F0700424F003040D682C43AC
:1036000022F002028D682A430D4DA84206D100BF68
:1036100022F00802CD682A4322F00402084DA84295
:1036200007D123F4807323F400734D692B438D6914
:103630002B43436084614D684563026230BD0000E6
:10364000002C014030B5026A056A25F010050562BC
:103650004368846924F4E04424F440740D6844EA27
:10366000052422F020028D6842EA05120E4DA84280
:1036700007D100BF22F08002CD6842EA051222F095
:103680004002094DA84209D123F4806323F400636A
:103690004D6943EA85038D6943EA8503436084618C
:1036A0004D688563026230BD002C014030B5026A6E
:1036B000056A25F4807505624368C46924F07004C6
:1036C00024F003040D682C4322F400728D6842EA52
:1036D00005220F4DA84207D100BF22F40062CD6839
:1036E00042EA052222F48062094DA84209D123F45E
:1036F000805323F400534D6943EA05138D6943EA6F
:1037000005134360C4614D68C563026230BD0000AB
:10371000002C014030B5036A056A25F48055056226
:103720004468C26922F4E04222F440720D6842EA21
:10373000052223F400538D6843EA0533064DA84261
:1037400004D124F480444D6944EA85144460C26184
:103750004D680564036230BD002C014030B50B4656
:103760001446026A056A25F001050562816921F0A7
:10377000F00141EA041122F00A021A438161026257
:1037800030BD30B50B461446026A056A25F01005B7
:103790000562816921F4704141EA043122F0A002FE
:1037A00042EA03128161026230BD000070B5044636
:1037B0002168096921F44051E268114322681161CE
:1037C0002269A1681143626941EA02052168C9685A
:1037D00041F20C62914329432268D1602168496912
:1037E00021F44071A2691143226851612D4A216878
:1037F000914202D1FEF768FD01E0FEF755FD00EBB6
:10380000C00101EB001162689200B1FBF2F100EB24
:10381000C00202EB001263689B00B2FBF3F2642368
:10382000B2FBF3F202EBC20303EB0212A1EB820143
:10383000322202EB01116422B1FBF2F101F0F0013E
:1038400000EBC00202EB001263689B00B2FBF3F2D4
:103850006423B2FBF3F201EB021200EBC00101EBB7
:10386000001163689B00B1FBF3F100EBC00303EBB5
:1038700000136668B600B3FBF6F36426B3FBF6F3F9
:1038800003EBC30606EB0313A1EB8301322303EB27
:1038900001116423B1FBF3F101F00F01114422681F
:1038A000916070BD003801402DE9F04104460D469D
:1038B00017469846069E34E0701C88B32EB1FEF77A
:1038C0003DFAA0EB0800B0422BD900BF00BF216831
:1038D0000C3151E8001F21F4D07021680C3141E80F
:1038E0000002002AF3D100BF00BF00BF21681431DD
:1038F00051E8001F21F001002168143141E8000265
:10390000002AF3D100BF202084F8410084F842004F
:1039100000BF002084F8400000BF0320BDE8F08114
:10392000FFE7206800682840A84201D1012000E09C
:103930000020B842C0D00020F0E700BFFEE7000042
:103940000FB4054B10B503A9044A029800F002F920
:1039500010BC5DF814FB00005D420008140000205C
:1039600002480068C0F30220704700000CED00E040
:1039700010B5002804DB0A07130E054A135406E0AD
:103980000A07140E034A00F00F031B1FD45410BD86
:1039900000E400E018ED00E0004870471800002047
:1039A00002E008C8121F08C1002AFAD17047704708
:1039B000002001E001C1121F002AFBD17047000066
:1039C0002DE9FF5F82B00021DDE90430020DDDF852
:1039D00040B0034318D044F61050A2F2FF324243E5
:1039E0001514119801281FD0A5EB0B00401C5FEAAD
:1039F000000A4FF000064E4FDFF83891B0465046AF
:103A000015D5CAF1000413E0119801244AA3012836
:103A100001D16FEA0B010298119AC0E90031C0E9A7
:103A2000024206B0BDE8F09FCBF10000DFE704469C
:103A30000021404A491842EB0450CDE9001012E041
:103A4000E00707D032463B4640464946FCF783FF35
:103A50008046894632463B4610461946FCF77BFFB6
:103A600006460F466410002CEAD1DDE90401DDE9C9
:103A70000023BAF1000F06DAFCF76DFF42464B4611
:103A8000FCF769FF05E0FCF7D8FF42464B46FCF720
:103A9000D4FF04460E460022284BFDF763FA03D8F4
:103AA0004FF0FF30014607E00022254B204631460B
:103AB000FCF7AAFEFDF73DFA102409E0002C0ADB12
:103AC0000A220023FDF7A4F8039B30321A55641E26
:103AD00050EA0102F2D1641C039AC4F111031444A8
:103AE000119A012A03D0012208430DD10AE00843AC
:103AF00004D000204FF0110B119072E7A3EB0B05DF
:103B00006D1E0DE05B4504DD4FF0000205F101057F
:103B100004E003DA4FF00002A5F10105002AECD021
:103B200002981199C0E90231C0E9004579E7000027
:103B3000000014400000F03F300000000000F0439F
:103B40000000E03F30380A2801D2012070470020F1
:103B5000704700002DE9FF4F95B09A46884606460B
:103B60000025EEE1252877D100242746F94A0121D6
:103B7000039400E0044316F8013F203B01FA03F0F0
:103B80001042F7D130782A2811D06FF02F03307807
:103B9000A0F13002092A16D8039A44F0020402EB7D
:103BA000820203EB42021044761C0390EFE758F8C0
:103BB000042B0392002A03DA504244F40054039089
:103BC00044F00204761C30782E2816D116F8010F26
:103BD00044F004042A280DD06FF02F023078A0F1B1
:103BE0003003092B09D807EB870302EB4303C718FF
:103BF000761CF3E758F8047B761C30786C280FD0DD
:103C000006DC4C2817D068280DD06A2814D104E0AF
:103C1000742810D07A280FD10DE044F400140AE083
:103C200044F4801401E044F440147278824202D1DA
:103C300004F58014761C761C307866280BD013DCD3
:103C4000582877D009DC002875D04528F6D04628BA
:103C5000F4D047281AD193E118E0632835D06428BE
:103C600079D0652812D18BE1702873D008DC6728E1
:103C7000F1D069286FD06E280DD06F2806D1ACE046
:103C800073282CD0752874D0782853D052461799B1
:103C900090476D1C54E1C4F30250022809D0032858
:103CA0000DD0D8F8001004280DD00D6008F10408DC
:103CB00046E1D8F80010EA17C1E90052F6E7D8F853
:103CC00000100D80F2E70D70F0E718F8041B8DF876
:103CD000001000208DF80100EB46012003E058F8A9
:103CE00004BB4FF0FF3061074FF0000102D40DE03C
:103CF00009F101018946B9420FDA8145F8DB1BF869
:103D000009100029F4D108E009F101018946814236
:103D1000FADB1BF809100029F6D103985346A0EBF3
:103D2000090721463846179A00F080FA284400EB2C
:103D3000090507E044E008E10DE01BF8010B5246DD
:103D400017999047B9F10109F7D2534621463846F1
:103D5000179AF2E039E00A21C4F302524FF0000B47
:103D60000091022A06D058F8040BC117032A09D083
:103D70000AE023E008F1070020F00702F2E8020160
:103D8000904605E000B2C117042A01D140B2C11724
:103D9000002906DA0A460021404261EB02012D2289
:103DA00002E0220504D52B228DF80420012203E035
:103DB000E20701D02022F7E7914657E00A2100E010
:103DC00010214FF0000B00910BE010214FF0000B81
:103DD00044F004040827009103E008204FF0000B92
:103DE0000090C4F30252022A05D058F8040B0021B7
:103DF000032A08D008E008F1070020F00702F2E8E3
:103E00000201904603E080B2042A00D1C0B24FF014
:103E1000000922072AD53278702A07D0DDF800C0C1
:103E20008CF0100C5CEA0B0C05D00EE040228DF8F3
:103E30000420012208E050EA010306D030238DF867
:103E400004308DF8052002229146009B83F0080380
:103E500053EA0B030AD150EA010201D1620705D5EA
:103E600030228DF804204FF001097F1E3278582A45
:103E700004D039A20C920CAA02920BE03BA2F9E703
:103E80005B46009AFCF7C4FE0C9B9B5C029A521E98
:103E90000292137050EA0102F2D1029804A9081AA2
:103EA00000F1200B600702D524F4803400E00127E4
:103EB0005F4502DDA7EB0B0000E0002000EB0B01EB
:103EC000009003984944401A0390E00306D45346F7
:103ED0002146179A039800F0A9F90544002706E047
:103EE00001A85246C05D179990476D1C7F1C4F4535
:103EF000F6DBE0030CD553462146179A039800F0F1
:103F000095F9054404E030205246179990476D1CFE
:103F10000099481E00900029F5DC08E002980299FB
:103F200052460078491C0291179990476D1CBBF1CD
:103F30000001ABF1010BF1DC5BE100F065F9054438
:103F4000761C307800287FF40DAE19B02846BDE805
:103F5000F08F000009280100303132333435363714
:103F600038396162636465660000000030313233C5
:103F70003435363738394142434445460000000065
:103F8000600700D4062708F1070020F00700F0E8DA
:103F90000223804603F0004C5FEA0C0001D097A09A
:103FA00009E0200501D596A005E0E00701D095A025
:103FB00001E0AFF24C001390307823F00043652805
:103FC0000CD006DC452809D046281DD047287FD1D3
:103FD0003BE0662818D067287AD136E00021112FFF
:103FE00001DB112000E0781CCDE9000104A90CA838
:103FF000FFF7E6FCDDE90D010C9A4FF0000B07F12D
:104000000109109200914EE04FF000400097CDE979
:10401000011004A90CA8FFF7D3FCDDE90D020C9BED
:104020000F994FF0000B91461093009211B9791C33
:1040300000EB0109B7EB090003D4C0F1FF3B07F126
:104040000109A9EB0700019042E0012F00DA0127E6
:104050000021112F01DD112000E03846CDE90001DB
:1040600004A90CA8FFF7ACFCDDE90D010C9A009146
:104070004FF0000BB946109221070FD4009A4A4521
:1040800003DA914601E0A9F10109B9F1010F05DD5B
:10409000109AA9F10101515C3029F4D0B84202DA3A
:1040A00010F1040F03DA0121CDE9011010E000281E
:1040B00003DC8344A9EB000102E0411C494500DD1B
:1040C0008946A0EB0B00401C01904FF0004002908D
:1040D000200705D40198484502DB4FF0FF300190DE
:1040E00000208DF84B0002980DF14B07B0F1004F06
:1040F00025D002200C902B200D90029800280CDA7D
:10410000404202902D200D9007E00A210298FCF712
:1041100069FD3031029007F8011D0C99481E0C9082
:104120000029F2DC02980028EFD1791E0D98087062
:10413000307800F0200040F0450007F8020D11A88B
:10414000C01BC01D02901398007800B1012000EB45
:104150000901019801EBE071029801440398401AAB
:10416000401E0390E00306D453462146179A039855
:1041700000F05CF805441398007818B1524617997E
:1041800090476D1CE00323D553462146179A0398A8
:1041900000F04CF805441BE0BBF1000F07DB009872
:1041A000584504DD1098179910F80B0001E0179995
:1041B00030205246904701980BF1010B401E05F14B
:1041C0000105019004D12E205246179990476D1C8D
:1041D000B9F10001A9F10109DEDC05E017F8010BD6
:1041E0005246179990476D1C0299481E029000296B
:1041F000F4DC53462146179A03989EE62D000000F2
:104200002B000000200000002DE9F04104460025AD
:104210001E461746880404D405E039462020B047DE
:104220006D1C641EF9D52846BDE8F0812DE9F041EA
:10423000044600251E469046C80301D5302700E0FD
:104240002027880404D505E041463846B0476D1C58
:10425000641EF9D52846BDE8F081000013B50C4670
:104260004FF6FF73012269460248FEF70BFE0098E5
:104270001CBD0000B8000020FDF794FEFFF72FF9E9
:10428000FEF7F0FFFFF7D4F8FFF780F8FFF760F8CC
:10429000FFF7EAF82F2121A0FBF790FF28B12F218B
:1042A0001EA0FBF78BFF401C00E01CA005465C2114
:1042B000FBF784FF88B12F2118A0FBF77FFF28B1FF
:1042C0002F2116A0FBF77AFF401C00E013A0054643
:1042D0005C21FBF773FF401C0BE02F210FA0FBF7C5
:1042E0006DFF28B12F210DA0FBF768FF401C00E0F7
:1042F0000AA004460A23682221460DA0FFF720FBEE
:10430000FF20FEF799FFFEF718FE05E0FEF716FE08
:104310004FF47A70FDF768FBF8E700002E2E2F436C
:104320006F72652F5372632F6D61696E2E6300008B
:104330005B25733A25645D68656C6C6F20776F72DE
:104340006C642025640D0A000203040506070809B1
:104350000A0B0C0D0E0F10100102000000000000EF
:104360000000010203040607080900000000010222
:1043700003040040404040404040404041414141F2
:10438000414040404040404040404040404040402C
:104390004040400502020202020202020202020240
:1043A00002020220202020202020202020020202C1
:1043B0000202020290909090909010101010101035
:1043C0001010101010101010101010101010020209
:1043D0000202020288888888888808080808080875
:1043E0000808080808080808080808080808020259
:1043F00002024000734300085B25733A25645D6444
:104400006174653A25732C74696D653A25732C7354
:1044100074617475733A25632C6C61746974756486
:10442000653A256C662C6C617469747564655F64AB
:1044300069723A25632C6C6F6E6769747564653AAE
:10444000256C662C6C6F6E6769747564655F646952
:10445000723A25630D0A00005B25733A25645D649A
:104460006174653A2573202C2074696D653A257353
:10447000202C206C617469747564653A25662C6C17
:1044800061745F6469723A25632C6C6F6E6769743E
:104490007564653A25662C6C6F6E675F6469723A65
:1044A00025630D0A0000000024474E4747412C3089
:1044B00038313632312E3030302C333130362E36E2
:1044C000373639312C4E2C31323131332E353236AC
:1044D00036362C452C312C31312C322E392C3336BA
:1044E0002E392C4D2C31302E332C4D2C2C2A37319B
:1044F0000A24474E524D432C3038313632312E305B
:1045000030302C412C333130362E36373639312C81
:104510004E2C31323131332E35323636362C452C55
:10452000302E30302C302E30302C3034303132368A
:104530002C2C2C412C562A30440A24474E565447E2
:104540002C30302E30302C542C2C4D2C302E303042
:104550002C4E2C352E30302C244B2C41562A323602
:104560000A00000084450008000000201C00000034
:10457000A0390008A04500081C000020DC0700004E
:10458000B039000800000000100000000100000029
:104590000024F40000000000000000000000000003
:04000005080000ED02
:00000001FF
