:020000040800F2
:10000000900D002005010008152D0008F31E0008C2
:10001000112D000821080008AB3100080000000085
:10002000000000000000000000000000452D000856
:100030002508000800000000192D0008472D0008C1
:100040001F0100081F0100081F0100081F01000810
:100050001F0100081F0100081F0100081F01000800
:100060001F0100081F0100081F0100081F010008F0
:100070001F0100081F0100081F0100081F010008E0
:100080001F0100081F0100081F0100081F010008D0
:100090001F0100081F0100081F01000827080008B1
:1000A0001F0100081F0100081F0100081F010008B0
:1000B0001F0100081F0100081F0100081F010008A0
:1000C0001F0100081F0100081F0100081F01000890
:1000D0001F0100081F0100081F0100081F01000880
:1000E0001F0100081F0100081F010008DFF810D0E1
:1000F00000F084FB00480047093B0008AFF3008094
:10010000900D00200648804706480047FEE7FEE7BE
:10011000FEE7FEE7FEE7FEE7FEE7FEE7FEE7FEE7B7
:10012000B52D0008ED000008202A04DB203A21FA52
:1001300002F00021704721FA02F3D040C2F1200200
:100140009140084319467047D2B201E000F8012BF4
:10015000491EFBD270470022F6E710B513460A4647
:1001600004461946FFF7F0FF204610BD30B505469E
:100170002A460B4612F8010B13F8014B08B1A042B6
:10018000F8D01CB1002802D06D1CF1E7284630BD24
:10019000421C10F8011B0029FBD1801A7047002275
:1001A000CBB20178994200D10246401C0029F8D117
:1001B000104670472DE9F04791460F4680460446A9
:1001C000002614F8015B2DB100F02AFA0068405DAA
:1001D000C007F6D12B2D02D02D2D18D0641E4A4613
:1001E0003946204600F02EFA27B13968A14201D1E4
:1001F000C7F8008071054FF002040BD5404200287B
:1002000003DD03F015F80460A007BDE8F08746F4AD
:100210008066E4E70028F8DA03F00AF804606FF07B
:100220000040F2E770B5064603F002F804680546A0
:100230000A2200213046FFF7BDFF2C6070BD2DE97A
:10024000FE4F804681EA0300C00F0C46009021F06B
:10025000004123F00045B8EB0200A94105D2404619
:10026000214690461C460B46024623F000401043B0
:1002700047D0270DC7F30A00C3F30A510290401A72
:10028000019040286BDAC3F3130040F4801B009800
:10029000924620B10023D2EB030A63EB0B0B0198CB
:1002A0005946C0F14002504600F098F906460D4606
:1002B00050465946019A00F0A0F910EB0800614140
:1002C000002487EA115284EAE7731A4340D0009A67
:1002D00062B3019A012A4FEA075215DC001B61EB59
:1002E00002014FF0004202EA0752CDE90042001C31
:1002F00041F5801132462B4600F002FA03B0BDE80A
:10030000F08F40462146F9E7001B61EB0201001C1B
:1003100041F5801300185B412018A2F5001747EB48
:10032000030140EAD570B6196D4111E06D084FEA3E
:10033000360645EAC0754FEA0752001B61EB020121
:10034000001C41F5801149084FEA30000019514165
:1003500032462B4603B0BDE8F04F00F0C2B900981A
:10036000012240000023D0EB020263EBE07300980F
:1003700021464FEAE074B8EB000061EB0401E9E7C5
:1003800083F000435BE781F0004158E72DE9FE4F21
:1003900081EA030404F0004421F0004100944FF08E
:1003A000000B23F0004350EA01045ED052EA03043C
:1003B0005BD0C3F30A54C1F30A552C44A4F2F334BE
:1003C0000194A0FB0254C1F3130141F48011C3F363
:1003D000130343F4801301FB024400FB034E840A21
:1003E000970A44EA815447EA8357A4FB07680295B9
:1003F0008D0A05FB07854FEA932C04FB0C54270557
:10040000029D4FEA065847EA1637B5EB08056EEB32
:10041000070C870E920E47EA811742EA8312A7FB68
:100420000201B6EB0B0164EB00042B0D43EA0C3325
:100430005E1844EB1C50DA465146E7FB0201C5F357
:1004400013044FEA0B3343EA14534FEA0432019C7E
:1004500043EA0603A4F10C040294009CCDE900B425
:1004600000F04EF903B0BDE8F08F00200146F9E737
:100470002DE9F04D81EA030404F0004B21F0004522
:1004800014464FF0000A23F0004150EA050220D044
:1004900054EA01021DD0C5F30A570246C5F31303FF
:1004A000C1F31300C1F30A5640F4801543F48013DE
:1004B000A7EB0608101BD64608F2FD3873EB0500C3
:1004C00002D308F1010801E092185B41B8F1000F76
:1004D00003DA00200146BDE8F08D00204FF48011C2
:1004E000064684460EE0171B73EB050705D3121B67
:1004F00063EB050306434CEA010C49084FEA300060
:1005000092185B4150EA0107EDD152EA030012D084
:1005100082EA040083EA0501084305D0101BAB41C1
:1005200006D20122002306E000224FF0004302E041
:100530006FF0010253101AEB06004CEB085110EB60
:100540000A0041EB0B01BDE8F04D00F0CAB830B530
:100550000B46014600202022012409E021FA02F581
:100560009D4205D303FA02F5491B04FA02F528441B
:10057000151EA2F10102F1DC30BD2DE9F05F054648
:10058000002092469B4688460646814640241BE052
:100590002846414647462246FFF7C6FD53465A467F
:1005A000C01A914110D311461846224600F016F8A1
:1005B0002D1A67EB01084F4622460120002100F06A
:1005C0000DF817EB00094E41201EA4F10104DFDCF9
:1005D000484631462A464346BDE8F09F202A04DBC0
:1005E000203A00FA02F1002070479140C2F1200346
:1005F00020FA03F3194390407047202A06DBCB17FB
:10060000203A41FA02F043EAE07306E041FA02F3CD
:10061000D040C2F1200291400843194670470000C3
:1006200000487047983C00083A2800D2303820F043
:100630002002412A01D3A2F13700884201D34FF0B2
:10064000FF3070472DE9F05F82460078002715469D
:100650008B460AF10104B946302801D09DB113E060
:1006600014F8010B0127782803D0582801D045B190
:100670000AE00DB1102D07D10027102514F8010B49
:1006800002E0082500E00A250026B0460EE005FB42
:10069000080005FB06F1012701EB10461FFA80F860
:1006A000B6F5803F00D3B94614F8010B2946FFF791
:1006B000BBFF0028EBDABBF1000F05D00FB1641EC1
:1006C00000E05446CBF80040B9F1000F06D002F02C
:1006D000AFFD02210160C81EBDE8F09F48EA064058
:1006E000FAE710B5141E73F1000408DA401C41F15A
:1006F000000192185B411A4301D120F0010010BDA6
:100700002DE9F04D92469B4611B1B1FA81F202E01B
:10071000B0FA80F220329046FFF760FF04460F46A1
:1007200040EA0A0041EA0B0153465A46084313D0F7
:10073000114653EA010019D0C8F140025046FFF7B4
:10074000F3FC05460E46504659464246FFF746FF23
:10075000084305D0012004E020463946BDE8F08D6D
:100760000020054346EAE0762C4337430A986305A8
:10077000E40AA0EB08000022FD0A44EA47540A30CC
:1007800002D500200146E9E7010510196941DDE9BC
:10079000084500196941BDE8F04DA2E7C1F30A52CE
:1007A000C1F3130140F2FF3341F480119A4202DA9F
:1007B00000200146704740F233439A42A2F233428E
:1007C00002DC5242FFF7B0BCFFF708BF30B5041E91
:1007D00071F1000404DB4FF00044404264EB01017E
:1007E000141E73F1000405DB1C464FF00043524217
:1007F00063EB0403994208BF904230BD064C074D9D
:1008000006E0E06840F0010394E8070098471034E0
:10081000AC42F6D3FFF76EFC9C3C0008BC3C0008E1
:1008200000BFFEE7704710B54FF4007000F01AF8F3
:1008300010BD72B600BFFEE770B5044600F0B6F911
:1008400006462546681C10B104480078054400BFE0
:1008500000F0ACF9801BA842FAD370BD080000205C
:100860007047000010B5044604480068204020B1DD
:10087000024804602046FFF7F3FF10BD1404014056
:100880002DE9F8470346002294466EE14FF0010837
:1008900008FA02F4D1F8008008EA0400A0427DD1F1
:1008A000DFF8DCA2D1F80480A8EB0A09D0453AD0E1
:1008B00014DCB8F1030F50D009DCB8F1000F31D0CF
:1008C000B8F1010F1CD0B8F1020F49D120E0B8F106
:1008D000110F18D0B8F1120F42D11EE0B9F5881FE0
:1008E00025D006DCB9F5803F20D0B9F5801F37D17F
:1008F0001AE0B9F5001F18D0B9F5041F30D117E080
:10090000D1F80CC02DE0D1F80C8008F1040C28E0DF
:10091000D1F80C8008F1080C23E0D1F80C8008F124
:100920000C0C1EE000BF00BF00BF00BF00BF00BF37
:10093000D1F80880B8F1000F02D14FF0040C0BE0A1
:10094000D1F80880B8F1010F03D14FF0080C1C61F9
:1009500002E04FF0080C5C6103E04FF0000C00E097
:1009600000BF00BFFF2801D8984601E003F104084A
:100970004646FF2802D84FEA820803E0A2F10808A1
:100980004FEA88084746D6F800804FF00F0909FA69
:1009900007F928EA09080CFA07F900E088E048EAB4
:1009A0000908C6F80080D1F8048008F08058B8F132
:1009B000805F7DD100BFDFF8CC81D8F8188048F087
:1009C0000108DFF8C091C9F81880C846D8F8188027
:1009D00008F00108CDF8008000BF00BF4FEAB93829
:1009E0004FEA920958F829504FEA82784FEA18796D
:1009F0004FF00F0808FA09F825EA0805DFF88881A2
:100A0000434502D14FF0000816E0DFF880814345EE
:100A100002D14FF001080FE0DFF87481434502D1A5
:100A20004FF0020808E0DFF86C81434502D14FF037
:100A3000030801E04FF004084FEA82794FEA197980
:100A400008FA09F848EA0505DFF84C814FEA9209EF
:100A500048F82950D1F8048008F48018B8F5801FB0
:100A60000AD1DFF83881D8F8008048EA0008DFF8BA
:100A70002C91C9F8008009E0DFF82081D8F80080C7
:100A800028EA0008DFF81491C9F80080D1F8048042
:100A900008F40018B8F5001F10D1DFF8008108F144
:100AA0000408D8F8008048EA0008DFF8F09000E079
:100AB0005AE009F10409C9F800800DE0DFF8DC8094
:100AC00008F10408D8F8008028EA0008DFF8CC9084
:100AD00009F10409C9F80080D1F8048008F400384D
:100AE000B8F5003F0ED1DFF8B480A8F10408D8F8BB
:100AF000008048EA0008DFF8A490A9F10409C9F8C9
:100B000000800DE0DFF89480A8F10408D8F8008098
:100B100028EA0008DFF88490A9F10409C9F80080E8
:100B2000D1F8048008F48038B8F5803F0ED1DFF8A2
:100B30006C80A8F10808D8F8008048EA0008DFF8BF
:100B40005C90A9F10809C9F800800DE0DFF84C803D
:100B5000A8F10808D8F8008028EA0008DFF83C90DF
:100B6000A9F10809C9F80080521CD1F8008028FAC0
:100B700002F8B8F1000F7FF489AEBDE8F8870000F5
:100B8000000011100010024000080140000C01405C
:100B90000010014000140140080001400804014019
:100BA0000AB1016101E00B0403617047014800686C
:100BB000704700000000002070B504460CB9012009
:100BC00070BD94F83D0028B9002084F83C00204610
:100BD00000F0DAF8242084F83D002068006820F056
:100BE0000100216808602068006840F40040216826
:100BF00008602068006820F400402168086000F068
:100C00009BFA05465C496068884206D85B48854285
:100C100001D2012007E0002005E05948854201D2B9
:100C2000012000E00020012800D1C9E75548B5FBAC
:100C3000F0F62068406820F03F00304321684860AB
:100C40004D496068884201D8701C07E04FF49670E7
:100C500070434FF47A71B0FBF1F0401C2168096ACF
:100C600021F03F01084321680862434960688842D7
:100C700014D8681E61684900B0FBF1F0401CC0F355
:100C80000B00042801D204203DE0681E6168490081
:100C9000B0FBF1F0401CC0F30B0034E0A06838B9A1
:100CA000681E616801EB4101B0FBF1F0401C0AE0F5
:100CB000681E616801EBC10202EB0111B0FBF1F0AB
:100CC000401C40F48040C0F30B0008B901201AE03A
:100CD000A06848B9681E616801EB4101B0FBF1F002
:100CE000401CC0F30B000CE0681E616801EBC10200
:100CF00002EB0111B0FBF1F0401CC0F30B0040F41B
:100D0000804040F400402168C9694CF6FF7291436D
:100D100008432168C861D4E90701084321680968CC
:100D200021F0C001084321680860D4E9031008439A
:100D30002168896848F2FF3291430843216888603E
:100D4000D4E9050108432168C96821F0FF0108437F
:100D50002168C8602068006840F0010021680860D0
:100D600000202064202084F83D000020206384F8C7
:100D70003E0000BF24E70000A086010080841E0022
:100D800000093D0040420F0010B586B00446002027
:100D9000029003900490059015492068884225D15F
:100DA00000BF1448806940F0080012498861084675
:100DB000806900F00800019000BF00BFC0200290D1
:100DC000122003900320059002A90B48FFF758FD5D
:100DD00000BF0848C06940F400100649C8610846D1
:100DE000C06900F40010019000BF00BF06B010BD44
:100DF0000054004000100240000C0140034800680D
:100E00000349097808440149086070470000002040
:100E10000800002010B50848006840F0100006499E
:100E20000860032000F0A8F80F2000F007F800F099
:100E30002BF8002010BD00000020024070B50446D1
:100E40000E4800784FF47A71B1FBF0F00C49096854
:100E5000B1FBF0F5284600F0F9FB08B1012070BDA8
:100E6000102C07D200222146501E00F047F80548FA
:100E7000046001E00120F2E70020F0E70800002014
:100E80000C0000200400002008B500BF1148806954
:100E900040F001000F4988610846806900F00100B8
:100EA000009000BF00BF00BF0846C06940F08050FE
:100EB000C8610846C06900F08050009000BF00BFC4
:100EC00000BF0549486820F0E06040F000704860CD
:100ED00000BF08BD00100240000001400146084666
:100EE000002809DB00F01F0301229A4043099B0000
:100EF00003F1E023C3F8002100BF70472DE9F05F44
:100F000080460D461646002702F076F90746394618
:100F10002A46334601F00700C0F1070ABAF1040F70
:100F200002D94FF0040A01E0C0F1070AD14600F1EE
:100F3000040ABAF1070F02D24FF0000A01E0A0F153
:100F4000030AD4464FF0010A0AFA09FAAAF1010A83
:100F50000AEA020A0AFA0CFA4FF0010B0BFA0CFB30
:100F6000ABF1010B0BEA030B4AEA0B0421464046A6
:100F700002F04AF9BDE8F09F00BF00F00702064BFF
:100F800019684FF6FF031940044B0B4343EA022153
:100F9000014B196000BF70470CED00E00000FA053E
:100FA00070B504460D460CB9012070BD5A48006862
:100FB00000F00700A8420ED25748006820F0070052
:100FC0002843554908600846006800F00700A84219
:100FD00001D00120E9E7207800F0020002281DD1AD
:100FE000207800F00400042805D14C48406840F403
:100FF000E0604A494860207800F00800082805D1E0
:101000004648406840F4605044494860434840685E
:1010100020F0F000A168084340494860207800F0C3
:10102000010078B36068012806D13C48006800F4EC
:10103000003090B90120B8E76068022806D137482F
:10104000006800F0007040B90120AEE73348006846
:1010500000F0020008B90120A7E73048406820F0FE
:101060000300616808432D494860FFF79FFD06466D
:1010700009E0FFF79BFD801B41F28831884202D9CD
:10108000032092E707E02548406800F00C00616803
:10109000B0EB810FEDD12048006800F00700A842B6
:1010A0000ED91D48006820F0070028431A4908603F
:1010B0000846006800F00700A84201D0012074E74C
:1010C000207800F00400042807D11448406820F478
:1010D000E060E168084311494860207800F00800AA
:1010E000082808D10D48406820F46050216940EA82
:1010F000C1000A49486000F03FF808494968C1F357
:101100000311074A515CC840064908600648006858
:10111000FFF794FE002048E7002002400010024044
:10112000FE3B00080C00002004000020014800687D
:10113000704700000C00002000B5FFF7F7FF0449DE
:101140004968C1F30221034A515CC84000BD000058
:10115000001002400E3C000800B5FFF7E7FF04490D
:101160004968C1F3C221034A515CC84000BD000078
:10117000001002400E3C000870B50021002200243F
:1011800000230020134D696801F00C05F5B1042D12
:1011900002D0082D19D101E00F4819E00F4DC1F31D
:1011A0008346AB5D01F4803555B10A4D6D68C5F3DA
:1011B00040450B4E725D084D5D43B5FBF2F402E015
:1011C000084D03FB05F4204602E000BF024800BFC3
:1011D00000BF70BD0010024000127A00EC3B000816
:1011E000FC3B000800093D00F8B504460CB901209D
:1011F000F8BD207800F00100002878D0F848406859
:1012000000F00C0004280CD0F548406800F00C00F9
:10121000082811D1F248406800F48030B0F5803FD2
:101220000AD1EF48006800F4003000285FD0606801
:1012300000285CD10120DBE700BF6068B0F5803F8B
:1012400006D1E748006840F48030E549086028E0AE
:10125000606858B9E248006820F48030E0490860CE
:101260000846006820F4802008601AE06068B0F545
:10127000A02F0BD1DA48006840F48020D8490860DC
:101280000846006840F4803008600AE0D4480068EE
:1012900020F48030D24908600846006820F480209D
:1012A000086000BF606888B1FFF780FC054606E073
:1012B000FFF77CFC401B642801D9032098E7C8484D
:1012C000006800F400300028F2D010E0FFF76EFC58
:1012D000054606E0FFF76AFC401B642801D903209D
:1012E00086E7BF48006800F400300028F2D120787B
:1012F00000F00200022857D1B948406800F00C0005
:1013000050B1B748406800F00C00082818D1B44824
:10131000406800F4803098B9B148006800F00200DD
:1013200020B12069012801D0012061E7AC480068A4
:1013300020F0F800616940EAC100A949086033E083
:101340002069E8B10120A7490860FFF72FFC054696
:1013500006E0FFF72BFC401B022801D9032047E7DA
:101360009F48006800F002000028F2D09C48006806
:1013700020F0F800616940EAC1009949086013E073
:10138000002098490860FFF711FC054606E0FFF7CA
:101390000DFC401B022801D9032029E79048006872
:1013A00000F002000028F2D1207800F008000828A0
:1013B0002DD1A069B8B101208B490860FFF7F6FB79
:1013C000054606E0FFF7F2FB401B022801D9032087
:1013D0000EE78348406A00F002000028F2D00120A6
:1013E00001F09CFC13E000207F490860FFF7DEFB62
:1013F000054606E0FFF7DAFB401B022801D903206F
:10140000F6E67748406A00F002000028F2D1207822
:1014100000F00400042873D100277148C06900F06F
:10142000805070B900BF6E48C06940F080506C4970
:10143000C8610846C06900F08050009000BF00BF3E
:1014400001276A48006800F48070B0B967480068F6
:1014500040F4807065490860FFF7A8FB054606E088
:10146000FFF7A4FB401B642801D90320C0E65F48B6
:10147000006800F480700028F2D000BFE068012806
:1014800006D15748006A40F001005549086227E03C
:10149000E06858B95248006A20F0010050490862DB
:1014A0000846006A20F00400086219E0E068052898
:1014B0000BD14B48006A40F00400494908620846D5
:1014C000006A40F0010008620AE04548006A20F026
:1014D0000100434908620846006A20F004000862DF
:1014E00000BFE068A0B1FFF761FB054609E0FFF728
:1014F0005DFB401B41F28831884202D9032077E628
:1015000022E03748006A00F002000028EFD012E025
:10151000FFF74CFB054608E0FFF748FB401B41F294
:101520008831884201D9032062E62D48006A00F024
:1015300002000028F0D1012F05D12948C06920F010
:1015400080502749C86100BFE069C8B3244840689B
:1015500000F00C00082860D0E069022848D1002083
:1015600020490866FFF722FB054606E0FFF71EFB51
:10157000401B022801D903203AE61948006800F010
:1015800000700028F2D1206AB0F5803F07D11448DE
:10159000406820F40030A168084311494860D4E94C
:1015A000080108430E49496821F4741108430C49A5
:1015B000486001200B490866FFF7F8FA054607E086
:1015C0003DE0FFF7F3FA401B022801D903200FE6A4
:1015D0000348006800F000700028F2D02FE00000FF
:1015E000001002400000424280044242007000406D
:1015F000002014490866FFF7D9FA054606E0FFF710
:10160000D5FA401B022801D90320F1E50E480068F5
:1016100000F000700028F2D111E0E069012800D14B
:10162000E6E50948466806F48031206A814204D123
:1016300006F47011606A814201D00120D8E50020D3
:10164000D6E50000000042420010024070B504469A
:101650002546681EB0F1807F01D301200FE0681E8F
:101660004FF0E02148610F214FF0FF3001F0CCFD39
:1016700000204FF0E021886107200861002070BD44
:1016800030B502460B4600BF92F83C00012801D15C
:10169000022030BD012082F83C0000BF022082F809
:1016A0003D00106844681068816824F07004186870
:1016B000044310684460104D1068A8420BD01068B5
:1016C000B0F1804F07D00D4D1068A84203D00C4DEB
:1016D0001068A84205D121F08001586801431068C4
:1016E0008160012082F83D0000BF002082F83C00AC
:1016F00000BF00BFCDE70000002C01400004004007
:101700000008004010B504460CB9012010BD94F843
:101710003D0028B9002084F83C00204600F026F85F
:10172000022084F83D00211D206801F045FB0120C6
:1017300084F8460000BF84F83E0001213F20015597
:10174000402001554120015500BF00BF012084F811
:10175000420043200155442001554520015500BF5A
:10176000012084F83D000020D0E7000008B5094AB8
:10177000016891420DD100BF0749C96941F00201DA
:10178000054AD1611146C96901F00201009100BF0B
:1017900000BF08BD00040040001002402DE9F041E8
:1017A00004460D46002700BF94F83C00012802D1F2
:1017B0000220BDE8F081012084F83C0000BF022037
:1017C00084F83D002068866826F0770626F47F4678
:1017D000206886602868502833D00CDC202850D040
:1017E00004DC00284BD0102851D149E0302849D0E2
:1017F00040284CD139E060282DD0702807D0B0F5B2
:10180000805F03D0B0F5005F41D10DE041E0D5E944
:1018100002136A68206801F009FB2068866846F0B8
:1018200077062068866034E0D5E902136A6820688C
:1018300001F0FCFA2068806840F4804021688860EC
:1018400027E0EA686968206801F0C0FB5021206841
:1018500001F0F7FA1DE0EA686968206801F0C9FB49
:101860006021206801F0EDFA13E0EA6869682068F9
:1018700001F0ACFB4021206801F0E3FA09E000BF71
:1018800000BF00BF2968206801F0DBFA01E00127F2
:1018900000BF00BF012084F83D0000BF002084F895
:1018A0003C0000BF384684E710B586B004460020EF
:1018B000029003900490059013492068884221D13A
:1018C00000BF1248806940F008001049886108464E
:1018D000806900F00800019000BF00BF1020029056
:1018E00002200390059002A90948FEF7C9FF00BF36
:1018F0000849486820F4406040F0E06040F400602F
:10190000486000BF06B010BD000400400010024057
:10191000000C0140000001402DE9F04104460D4655
:101920001646002700BF94F83C00012802D102208F
:10193000BDE8F081012084F83C0000BF36B1042EE0
:101940001BD0082E31D00C2E5ED145E029462068F0
:1019500001F080FA2068806940F008002168886101
:101960002068806920F0040021688861206880690F
:10197000296908432168886148E02946206801F008
:1019800099FA2068806940F40060216888612068C5
:10199000806920F4806021688861206880692969F5
:1019A00040EA01202168886130E02946206801F082
:1019B000B5FA2068C06940F008002168C861206855
:1019C000C06920F004002168C8612068C0692969E5
:1019D00008432168C86119E02946206801F0D2FA5D
:1019E0002068C06940F400602168C8612068C0694F
:1019F00020F480602168C8612068C069296940EAD4
:101A000001202168C86101E0012700BF00BF00BFBD
:101A1000002084F83C0000BF384689E710B5044632
:101A20000CB9012010BD94F83D0028B9002084F8BD
:101A30003C00204600F025F8022084F83D00211DDE
:101A4000206801F0B9F9012084F8460000BF84F84D
:101A50003E0001213F200155402001554120015504
:101A600000BF00BF012084F84200432001554420FC
:101A700001554520015500BF012084F83D0000209C
:101A8000D0E770472DE9F84F04460F4690461D46B3
:101A9000DDF828A094F84200202878D117B1B8F1D9
:101AA000000F02D10120BDE8F88F002060642220E1
:101AB00084F842000120206300206063FFF776F87D
:101AC0008346A4F82C80A4F82E80A068B0F5805F2F
:101AD00004D1206910B90026B94602E03E464FF015
:101AE00000090020288053E02068006800F0100002
:101AF000102813D100BF00200090206800680090DB
:101B000020684068009000BF00BF288830B10220E4
:101B10006063202084F842000020C4E72068006849
:101B200000F02000202821D146B920684068C0F389
:101B30000800A9F8000009F1020911E0A068B0F559
:101B4000805F03D0A06828B9206918B92068406870
:101B5000307004E02068406800F07F003070761C30
:101B60002888401C2880E08D401EE0850AF1010095
:101B700070B1FFF71BF8A0EB0B00504502D8BAF18B
:101B8000000F05D1202084F8420003208BE70BE0F2
:101B9000E08D0028A8D1A08DE18D401A288020205A
:101BA00084F8420000207EE702207CE710B504465E
:101BB0000CB9012010BDA06900B100E000BF94F88D
:101BC000410028B9002084F84000204600F02AF89F
:101BD000242084F841002068C06820F40050216867
:101BE000C860204601F01AFA2068006920F490408D
:101BF000216808612068406920F02A002168486156
:101C00002068C06840F400502168C860002060640B
:101C1000202084F8410084F842000020606300BF67
:101C2000C8E7000010B586B004460020029003907B
:101C3000049005904D49206888422FD100BF4C4840
:101C4000806940F480404A4988610846806900F410
:101C50008040019000BF00BF00BF0846806940F08F
:101C6000040088610846806900F00400019000BF0C
:101C700000BF48150290022003900320059002A99E
:101C80003C48FEF7FDFD4FF4806002900020039079
:101C9000049002A93748FEF7F3FD65E03649206855
:101CA00088422ED100BF3248C06940F4003030492C
:101CB000C8610846C06900F40030019000BF00BF51
:101CC00000BF0846806940F00400886108468069CA
:101CD00000F00400019000BF00BF04200290022029
:101CE00003900320059002A92248FEF7C9FD0820B1
:101CF000029000200390049002A91E48FEF7C0FD48
:101D000032E01E49206888422ED100BF1848C069C1
:101D100040F480201649C8610846C06900F480205C
:101D2000019000BF00BF00BF0846806940F0080076
:101D300088610846806900F00800019000BF00BF7C
:101D400008150290022003900320059002A90C4878
:101D5000FEF796FD4FF4006002900020039004907F
:101D600002A90748FEF78CFD06B010BD00380140FF
:101D700000100240000801400044004000480040BC
:101D8000000C01402DE9F84F04460E4617469946CF
:101D90004FF0000A94F8420020284FD106B117B93D
:101DA0000120BDE8F88F00206064222084F8420002
:101DB00000202063FEF7FAFE8246A785E785A0682B
:101DC000B0F5805F04D1206910B90025B04602E06B
:101DD00035464FF0000829E05346002220212046D6
:101DE000CDF8009001F098F908B10320D9E745B982
:101DF00020684068C0F30800A8F8000008F1020855
:101E000011E0A068B0F5805F03D0A06828B9206910
:101E100018B920684068287004E02068406800F025
:101E20007F0028706D1CE08D401EE085E08D00284D
:101E3000D2D1202084F842000020B2E70220B0E78F
:101E40002DE9F84F04460E46174699464FF0000A12
:101E500094F8410020284AD106B117B90120BDE805
:101E6000F88F00206064212084F84100FEF79EFE78
:101E70008246A784E784A068B0F5805F04D120691A
:101E800010B90025B04602E035464FF000081BE0CF
:101E90005346002280212046CDF8009001F03CF905
:101EA00008B10320DBE745B9B8F80000C0F308002B
:101EB0002168486008F1020803E02878216848603A
:101EC0006D1CE08C401EE084E08C0028E0D153467D
:101ED000002240212046CDF8009001F01DF908B104
:101EE0000320BCE7202084F841000020B7E702204F
:101EF000B5E700BFFEE70000002839D1394909687D
:101F000041F40041374A116000BF00BF00BF00BF6D
:101F100000BF00BF00BF00BF00BF00BF00BF00BFC9
:101F200000BF00BF00BF2F49096821F400412D4ABE
:101F3000116000BF00BF00BF00BF00BF00BF00BFF7
:101F400000BF00BF00BF00BF00BF00BF00BF00BF99
:101F500000BF00BF00BF00BF00BF00BF00BF00BF89
:101F600000BF00BF00BF00BF00BF00BF00BF38E020
:101F70001C49096841F400411A4A116000BF00BFC2
:101F800000BF00BF00BF00BF00BF00BF00BF00BF59
:101F900000BF00BF00BF00BF00BF00BF00BF00BF49
:101FA00000BF00BF00BF00BF00BF00BF00BF00BF39
:101FB00000BF00BF00BF00BF0A49096821F400410B
:101FC000084A116000BF00BF00BF00BF00BF00BFD4
:101FD00000BF00BF00BF00BF00BF00BF00BF00BF09
:101FE00000BF70470C08014070B5054600240EE0A4
:101FF000C4F1170101208840284018B10120FFF7E3
:102000007BFF02E00020FFF777FF601CC4B2182CB2
:10201000EEDB70BD70B504464FF400712448FEF746
:102020009AF8224623A1224801F0D2F8204800F075
:102030006FFC2F2123A0FEF7B2F828B12F2121A099
:10204000FEF7ADF8401C00E01EA006465C21FEF73E
:10205000A6F888B12F211BA0FEF7A1F828B12F21E7
:1020600018A0FEF79CF8401C00E016A006465C2174
:10207000FEF795F8401C0BE02F2112A0FEF78FF819
:1020800028B12F210FA0FEF78AF8401C00E00DA018
:102090000546124BD222294611A001F089F813A15E
:1020A0000E48FEF763F808B1012070BD0020FCE780
:1020B0009005002041542B4E534F434C3D25640D59
:1020C0000A000000696E746572666163655C496E42
:1020D000745F71733130302E630000009001002076
:1020E0005B25733A25645D25730D0A004F6B000074
:1020F000F8B504464FF400712648FEF72CF848F274
:102100000A1025A3224628A10090224801F060F879
:10211000204800F0FDFB2F2128A0FEF740F828B151
:102120002F2126A0FEF73BF8401C00E023A0064626
:102130005C21FEF734F888B12F2120A0FEF72FF89C
:1021400028B12F211DA0FEF72AF8401C00E01BA09B
:1021500006465C21FEF723F8401C0BE02F2117A058
:10216000FEF71DF828B12F2114A0FEF718F8401C27
:1021700000E012A00546174B8A22294616A001F05E
:1021800017F818A11348FDF7F1FF08B10020F8BDBA
:102190000120FCE7900500203131322E3132352EFE
:1021A00038392E380000000041542B4E534F434F16
:1021B0003D25642C25732C25640D0A00696E746519
:1021C00072666163655C496E745F71733130302E85
:1021D00063000000900100205B25733A25645D25B3
:1021E000730D0A004F4B000070B521A000F090FB6A
:1021F0002F2122A0FDF7D3FF28B12F211FA0FDF72B
:10220000CEFF401C00E01DA005465C21FDF7C7FF86
:1022100088B12F2119A0FDF7C2FF28B12F2117A0E7
:10222000FDF7BDFF401C00E014A005465C21FDF752
:10223000B6FF401C0BE02F2110A0FDF7B0FF28B126
:102240002F210EA0FDF7ABFF401C00E00BA00446C1
:10225000104B5B22214610A000F0AAFF11A10D48EF
:10226000FDF784FF08B1002070BD0120FCE70000ED
:1022700041542B43474154543F0D0A00696E746525
:1022800072666163655C496E745F71733130302EC4
:1022900063000000900100205B25733A25645D25F2
:1022A000730D0A002B43474154543A31000000009B
:1022B00070B5012251038148FEF772FC6420FEF7DD
:1022C000BBFA00224FF400517C48FEF769FC4FF442
:1022D0007A7307227AA17C48FFF7B2FD4FF4806140
:1022E0007A48FDF738FF40F6B8334FF480627749FB
:1022F0007548FFF747FD2F2175A0FDF750FF28B166
:102300002F2173A0FDF74BFF401C00E070A0054695
:102310005C21FDF744FF88B12F216DA0FDF73FFF41
:1023200028B12F216AA0FDF73AFF401C00E068A009
:1023300005465C21FDF733FF401C0BE02F2164A014
:10234000FDF72DFF28B12F2161A0FDF728FF401CCC
:1023500000E05FA004465D4B3D22214662A000F0F4
:1023600027FF65A000F0D4FA2F2159A0FDF717FF31
:1023700028B12F2156A0FDF712FF401C00E054A009
:1023800005465C21FDF70BFF88B12F2150A0FDF71A
:1023900006FF28B12F214EA0FDF701FF401C00E0F1
:1023A0004BA005465C21FDF7FAFE401C0BE02F21F7
:1023B00047A0FDF7F4FE28B12F2145A0FDF7EFFE61
:1023C000401C00E042A00446404B482221464DA05C
:1023D00000F0EEFE4EA000F09BFA2F213CA0FDF78E
:1023E000DEFE28B12F213AA0FDF7D9FE401C00E007
:1023F00037A005465C21FDF7D2FE88B12F2134A01D
:10240000FDF7CDFE28B12F2131A0FDF7C8FE401CFD
:1024100000E02FA005465C21FDF7C1FE401C0BE04B
:102420002F212BA0FDF7BBFE28B12F2128A0FDF7FF
:10243000B6FE401C00E026A00446244B4C22214658
:1024400030A000F0B5FE2CA000F062FA2F2120A0F1
:10245000FDF7A5FE28B12F211DA0FDF7A0FE401C11
:1024600000E01BA005465C21FDF799FE88B12F21F5
:1024700017A0FDF794FE28B12F2115A0FDF78FFEC0
:10248000401C00E012A005465C21FDF788FE401CC0
:102490000BE02F210EA0FDF782FE28B12F210CA00A
:1024A000FDF77DFE401C00E009A00446074B5022CA
:1024B000214614A000F07CFE70BD0000000C01401D
:1024C00041542B52420D0A00480100209001002087
:1024D000696E746572666163655C496E745F717381
:1024E0003130302E630000005B25733A25645D2592
:1024F000733A0D0A0000000041542B43474D520D22
:102500000A0000005B25733A25645D25730D0A00FF
:10251000415445310D0A00002DE9F041044643A025
:1025200000F0F6F92F2147A0FDF739FE28B12F2141
:1025300044A0FDF734FE401C00E042A006465C21AA
:10254000FDF72DFE88B12F213EA0FDF728FE28B112
:102550002F213CA0FDF723FE401C00E039A00646D9
:102560005C21FDF71CFE401C0BE02F2135A0FDF780
:1025700016FE28B12F2133A0FDF711FE401C00E00C
:1025800030A00546354B6D22294635A000F010FEDF
:1025900036A13248FDF7EAFD002844D034A12F4887
:1025A000FDF7E4FD0546002D3AD0ED1D2846FDF768
:1025B00039FE20702F2123A0FDF7F1FD28B12F2136
:1025C00020A0FDF7ECFD401C00E01EA007465C21AA
:1025D000FDF7E5FD88B12F211AA0FDF7E0FD28B138
:1025E0002F2118A0FDF7DBFD401C00E015A00746D9
:1025F0005C21FDF7D4FD401C0BE02F2111A0FDF75D
:10260000CEFD28B12F210FA0FDF7C9FD401C00E031
:102610000CA0064623787622314617A000F0C8FDAC
:102620000020BDE8F0810120FBE7000041542B4E63
:10263000534F43523D53545245414D2C362C302C70
:10264000300D0A00696E746572666163655C496E7F
:10265000745F71733130302E6300000090010020F0
:102660005B25733A25645D25730D0A004F4B00000E
:102670002B4E534F43523A005B25733A25645D73EA
:102680006F636B65745F6E756D3A2025640D0A008B
:102690002DE9FC470746884616464FF400717748F7
:1026A000FDF759FD4FF400717548FDF754FD002406
:1026B00008E018F80420724901EB440071A100F011
:1026C00087FD641CB442F4DB01206D4933463A4671
:1026D000CDE900106DA1694800F07AFD674800F06F
:1026E00017F92F2171A0FDF75AFD28B12F216FA0F6
:1026F000FDF755FD401C00E06CA081465C21FDF714
:102700004EFD88B12F2169A0FDF749FD28B12F2189
:1027100066A0FDF744FD401C00E064A081465C21FA
:10272000FDF73DFD401C0BE02F2160A0FDF737FDBC
:1027300028B12F215DA0FDF732FD401C00E05BA019
:102740000446604BA82221465FA000F031FD3225EF
:1027500089E04FF400714948FDF7FDFC01233A463A
:102760005CA1464800F034FD444800F0D1F8002454
:102770003AE02F214DA0FDF712FD28B12F214BA0EB
:10278000FDF70DFD401C00E048A082465C21FDF7EE
:1027900006FD88B12F2145A0FDF701FD28B12F21AD
:1027A00042A0FDF7FCFC401C00E040A082465C21FA
:1027B000FDF7F5FC401C0BE02F213CA0FDF7EFFCE2
:1027C00028B12F2139A0FDF7EAFC401C00E037A01A
:1027D00081463C48005D2346B4224946009042A011
:1027E00000F0E6FC601CC4B2434800888442C0DBB1
:1027F0003448C57C2F212DA0FDF7D1FC28B12F2115
:102800002AA0FDF7CCFC401C00E028A081465C21FA
:10281000FDF7C5FC88B12F2124A0FDF7C0FC28B12D
:102820002F2122A0FDF7BBFC401C00E01FA0814629
:102830005C21FDF7B4FC401C0BE02F211BA0FDF731
:10284000AEFC28B12F2119A0FDF7A9FC401C00E027
:1028500016A004462B46BA22214628A000F0A8FC68
:102860000A20FDF7E9FF322D3FF473AF302D02D17E
:102870000120BDE8FC870020FBE700009005002058
:1028800090070020253032580000000041542B4EA4
:10289000534F53443D25642C25642C25732C3078EC
:1028A0003230302C25640D0A00000000696E74651A
:1028B00072666163655C496E745F71733130302E8E
:1028C00063000000900100205B25733A25645D25BC
:1028D000730D0A0041542B53455155454E43453D18
:1028E00025642C25640D0A005B25733A25645D255B
:1028F000643A25630D0A0000100000205B25733A3E
:1029000025645D7374617475733A25630D0A000064
:10291000F8B504462046FDF73BFC86B24FF47A73C7
:10292000324621462248FFF78BFA4FF48061214856
:10293000FDF711FC00252EE01F480088B0F5806FE0
:1029400000DB33E04FF47A7000901B480088C0F53C
:10295000806082B21748184B1B88C118174B144867
:10296000FFF790F814480088144909880844B0F526
:10297000806F04DB4FF480600F49088016E0681C0C
:10298000C5B20D4800880D49098808440A490880E5
:10299000052D00DD0AE00AA10648FDF7E7FB28B98E
:1029A00008A10448FDF7E2FB0028C5D000BFF8BD30
:1029B000480100209001002010000020120000209B
:1029C0004F4B00004552524F520000002DE9F84392
:1029D00006460F46002405E04FF47A70FDF72CFF01
:1029E000601CC4B2FFF700FC08B1052CF4DB00202A
:1029F000009004E06420FDF71FFF601CC4B268462D
:102A0000FFF78AFD08B1052CF4DB04E06420FDF734
:102A100013FF601CC4B29DF80000FFF769FB08B10A
:102A2000052CF3DB00254FF0010804E06420FDF7DE
:102A300003FF681CC5B2FAB231469DF80000FFF7EB
:102A400027FE08B1032DF1DB032D02DB4FF0010857
:102A500001E04FF000089DF80000FFF7DBFA404668
:102A6000BDE8F88300B585B0002001900290039086
:102A7000049000BF3F48806940F010003D498861E4
:102A80000846806900F01000009000BF00BF00BF42
:102A90000846806940F0200088610846806900F09F
:102AA0002000009000BF00BF00BF0846806940F0D2
:102AB000040088610846806900F00400009000BFAF
:102AC00000BF00BF0846806940F0080088610846E2
:102AD000806900F00800009000BF00BF00224FF4A2
:102AE00000512548FEF75CF800224FF400412348CE
:102AF000FEF756F8012220211F48FEF751F842F256
:102B000020000190012002900020039003200490F7
:102B100001A91948FDF7B4FE4FF480500190184800
:102B200002900120039001A91448FDF7A9FE4FF47B
:102B300000400190012002900020039003200490A7
:102B400001A90E48FDF79CFE4FF4007001900D485E
:102B500002900020039001A90748FDF791FE002292
:102B600011461720FEF7CAF91720FEF7B7F905B08E
:102B700000BD000000100240000C014000080140B0
:102B8000000021100000111010B50B480B4908601F
:102B90000B484860002109488160C1604FF48041C2
:102BA0000161002141618161C1610162FEF704F8A8
:102BB00008B1FDF73EFE10BD005400401C0000208F
:102BC000A086010000B58DB0002009900A900B90FE
:102BD0000C90079008901C216846FDF7BCFA20482D
:102BE0002049086041F61F40486000211D4881606F
:102BF0001321C160002101618161FEF783FD08B1ED
:102C0000FDF717FE4FF48050099009A91548FEF70B
:102C1000C5FD08B1FDF70DFE1248FEF7FFFE08B135
:102C2000FDF707FE00200790089007A90D48FEF762
:102C300027FD08B1FDF7FDFD602000900A200190FE
:102C4000002002900490002269460648FEF764FEC8
:102C500008B1FDF7EEFD0348FEF726FE0DB000BDFE
:102C6000000400407000002010B50B480B490860BC
:102C70004FF4E1304860002108488160C160016183
:102C80000C21416100218161C161FEF78FFF08B114
:102C9000FDF7CFFD10BD000000380140B800002056
:102CA00010B50B480B4908604FF4165048600021DE
:102CB00008488160C16001610C214161002181618E
:102CC000C161FEF773FF08B1FDF7B3FD10BD000051
:102CD000004400400001002010B50B480B4908607B
:102CE0004FF416504860002108488160C1600161BE
:102CF0000C21416100218161C161FEF757FF08B1DC
:102D0000FDF797FD10BD000000480040480100207D
:102D100000BFFEE700BFFEE77047000008B50849A6
:102D20000968C9084FF47A72B1FBF2F1414300918E
:102D300000BF00BF00994A1E00920029F9D108BDCA
:102D40000C000020704710B5FEF758F810BD00B514
:102D50008FB0282105A8FDF7FEF914216846FDF77C
:102D6000FAF9012005900004069000200790012048
:102D7000099002200C90C1030D914FF4E0110E91C7
:102D800005A8FEF731FA08B1FDF753FD0F200090BA
:102D900002200190002002904FF4806003900020F8
:102DA000049002216846FEF7FBF808B1FDF741FDEB
:102DB0000FB000BD7047000010B50268184B984274
:102DC00008D0B0F1804F05D0164B984202D0164B78
:102DD000984203D122F070024B681A43104B98427C
:102DE00008D0B0F1804F05D00E4B984202D00E4B68
:102DF000984203D122F44072CB681A4322F0800338
:102E00004C6943EA040202608B68C3620B68836208
:102E1000034B984201D10B6903630123436110BD49
:102E2000002C0140000400400008004030B50C4672
:102E3000816821F47F4142EA0325254329438160CB
:102E400030BD0A46816821F0700142F00703194342
:102E50008160704730B5026A056A25F00105056298
:102E60004368846924F0700424F003040D682C4343
:102E700022F002028D682A430D4DA84206D100BF00
:102E800022F00802CD682A4322F00402084DA8422D
:102E900007D123F4807323F400734D692B438D69AC
:102EA0002B43436084614D684563026230BD00007E
:102EB000002C014030B5026A056A25F01005056254
:102EC0004368846924F4E04424F440740D6844EABF
:102ED000052422F020028D6842EA05120E4DA84218
:102EE00007D100BF22F08002CD6842EA051222F02D
:102EF0004002094DA84209D123F4806323F4006302
:102F00004D6943EA85038D6943EA85034360846123
:102F10004D688563026230BD002C014030B5026A05
:102F2000056A25F4807505624368C46924F070045D
:102F300024F003040D682C4322F400728D6842EAE9
:102F400005220F4DA84207D100BF22F40062CD68D0
:102F500042EA052222F48062094DA84209D123F4F5
:102F6000805323F400534D6943EA05138D6943EA06
:102F700005134360C4614D68C563026230BD000043
:102F8000002C014030B5036A056A25F480550562BE
:102F90004468C26922F4E04222F440720D6842EAB9
:102FA000052223F400538D6843EA0533064DA842F9
:102FB00004D124F480444D6944EA85144460C2611C
:102FC0004D680564036230BD002C014030B50B46EE
:102FD0001446026A056A25F001050562816921F03F
:102FE000F00141EA041122F00A021A4381610262EF
:102FF00030BD30B50B461446026A056A25F010054F
:103000000562816921F4704141EA043122F0A00295
:1030100042EA03128161026230BD000070B50446CD
:103020002168096921F44051E26811432268116165
:103030002269A1681143626941EA02052168C968F1
:1030400041F20C62914329432268D16021684969A9
:1030500021F44071A2691143226851612D4A21680F
:10306000914202D1FEF778F801E0FEF765F800EB37
:10307000C00101EB001162689200B1FBF2F100EBBC
:10308000C00202EB001263689B00B2FBF3F2642300
:10309000B2FBF3F202EBC20303EB0212A1EB8201DB
:1030A000322202EB01116422B1FBF2F101F0F001D6
:1030B00000EBC00202EB001263689B00B2FBF3F26C
:1030C0006423B2FBF3F201EB021200EBC00101EB4F
:1030D000001163689B00B1FBF3F100EBC00303EB4D
:1030E00000136668B600B3FBF6F36426B3FBF6F391
:1030F00003EBC30606EB0313A1EB8301322303EBBF
:1031000001116423B1FBF3F101F00F0111442268B6
:10311000916070BD003801402DE9F04104460D4634
:1031200017469846069E34E0701C88B32EB1FDF712
:103130003DFDA0EB0800B0422BD900BF00BF2168C5
:103140000C3151E8001F21F4D07021680C3141E8A6
:103150000002002AF3D100BF00BF00BF2168143174
:1031600051E8001F21F001002168143141E80002FC
:10317000002AF3D100BF202084F8410084F84200E7
:1031800000BF002084F8400000BF0320BDE8F081AC
:10319000FFE7206800682840A84201D1012000E034
:1031A0000020B842C0D00020F0E700BFFEE70000DA
:1031B0000FB4054B10B503A9044A029800F00EF9AC
:1031C00010BC5DF814FB0000ED3A0008140000206C
:1031D0000FB4084B10B504A902AA039800F0FEF83A
:1031E000044602A9002000F07CFC204610BC5DF8DB
:1031F00014FB0000E33A000802480068C0F3022014
:10320000704700000CED00E010B5002804DB0A0751
:10321000130E054A135406E00A07140E034A00F081
:103220000F031B1FD45410BD00E400E018ED00E0B4
:10323000004870471800002002E008C8121F08C1AB
:10324000002AFAD170477047002001E001C1121F27
:10325000002AFBD1704700002DE9FF5F82B00021FA
:10326000DDE90430020DDDF840B0034318D044F628
:103270001050A2F2FF3242431514119801281FD0BA
:10328000A5EB0B00401C5FEA000A4FF000064E4F12
:10329000DFF83891B046504615D5CAF1000413E066
:1032A000119801244AA3012801D16FEA0B01029869
:1032B000119AC0E90031C0E9024206B0BDE8F09FB2
:1032C000CBF10000DFE704460021404A491842EBF9
:1032D0000450CDE9001012E0E00707D032463B462B
:1032E00040464946FDF752F88046894632463B46FD
:1032F00010461946FDF74AF806460F466410002CA2
:10330000EAD1DDE90401DDE90023BAF1000F06DAB4
:10331000FDF73CF842464B46FDF738F805E0FDF76F
:10332000A7F842464B46FDF7A3F804460E46002296
:10333000284BFDF74BFA03D84FF0FF30014607E06A
:103340000022254B20463146FCF779FFFDF726FA8F
:10335000102409E0002C0ADB0A220023FDF70DF9F6
:10336000039B30321A55641E50EA0102F2D1641CEC
:10337000039AC4F111031444119A012A03D00122C3
:1033800008430DD10AE0084304D000204FF0110B90
:10339000119072E7A3EB0B056D1E0DE05B4504DD9C
:1033A0004FF0000205F1010504E003DA4FF00002DE
:1033B000A5F10105002AECD002981199C0E902316B
:1033C000C0E9004579E70000000014400000F03F2C
:1033D000300000000000F0430000E03F2DE9FF4F07
:1033E00095B09A46884606460025EEE1252877D115
:1033F00000242746F94A0121039400E0044316F80B
:10340000013F203B01FA03F01042F7D130782A281F
:1034100011D06FF02F033078A0F13002092A16D8AE
:10342000039A44F0020402EB820203EB42021044CE
:10343000761C0390EFE758F8042B0392002A03DA76
:10344000504244F40054039044F00204761C307857
:103450002E2816D116F8010F44F004042A280DD0A6
:103460006FF02F023078A0F13003092B09D807EB59
:10347000870302EB4303C718761CF3E758F8047B75
:10348000761C30786C280FD006DC4C2817D06828C2
:103490000DD06A2814D104E0742810D07A280FD1F6
:1034A0000DE044F400140AE044F4801401E044F414
:1034B00040147278824202D104F58014761C761C86
:1034C000307866280BD013DC582877D009DC002828
:1034D00075D04528F6D04628F4D047281AD193E174
:1034E00018E0632835D0642879D0652812D18BE1A3
:1034F000702873D008DC6728F1D069286FD06E2857
:103500000DD06F2806D1ACE073282CD0752874D06C
:10351000782853D05246179990476D1C54E1C4F354
:103520000250022809D003280DD0D8F80010042832
:103530000DD00D6008F1040846E1D8F80010EA1734
:10354000C1E90052F6E7D8F800100D80F2E70D70DF
:10355000F0E718F8041B8DF8001000208DF801002A
:10356000EB46012003E058F804BB4FF0FF30610741
:103570004FF0000102D40DE009F101018946B94282
:103580000FDA8145F8DB1BF809100029F4D108E0B7
:1035900009F1010189468142FADB1BF80910002973
:1035A000F6D103985346A0EB090721463846179AEF
:1035B00000F080FA284400EB090507E044E008E148
:1035C0000DE01BF8010B524617999047B9F101091C
:1035D000F7D2534621463846179AF2E039E00A21DD
:1035E000C4F302524FF0000B0091022A06D058F8A3
:1035F000040BC117032A09D00AE023E008F10700F1
:1036000020F00702F2E80201904605E000B2C1177F
:10361000042A01D140B2C117002906DA0A46002166
:10362000404261EB02012D2202E0220504D52B224B
:103630008DF80420012203E0E20701D02022F7E701
:10364000914657E00A2100E010214FF0000B009155
:103650000BE010214FF0000B44F004040827009108
:1036600003E008204FF0000B0090C4F30252022A3E
:1036700005D058F8040B0021032A08D008E008F10F
:10368000070020F00702F2E80201904603E080B252
:10369000042A00D1C0B24FF0000922072AD532789F
:1036A000702A07D0DDF800C08CF0100C5CEA0B0C1F
:1036B00005D00EE040228DF80420012208E050EAF7
:1036C000010306D030238DF804308DF80520022246
:1036D0009146009B83F0080353EA0B030AD150EA9A
:1036E000010201D1620705D530228DF804204FF088
:1036F00001097F1E3278582A04D039A20C920CAAF4
:1037000002920BE03BA2F9E75B46009AFCF735FF1B
:103710000C9B9B5C029A521E0292137050EA0102AB
:10372000F2D1029804A9081A00F1200B600702D513
:1037300024F4803400E001275F4502DDA7EB0B0095
:1037400000E0002000EB0B01009003984944401A70
:103750000390E00306D453462146179A039800F0DD
:10376000A9F90544002706E001A85246C05D179953
:1037700090476D1C7F1C4F45F6DBE0030CD553468C
:103780002146179A039800F095F9054404E030208B
:103790005246179990476D1C0099481E00900029C9
:1037A000F5DC08E00298029952460078491C029123
:1037B000179990476D1CBBF10001ABF1010BF1DCD7
:1037C0005BE100F065F90544761C307800287FF451
:1037D0000DAE19B02846BDE8F08F000009280100A1
:1037E0003031323334353637383961626364656677
:1037F0000000000030313233343536373839414239
:103800004344454600000000600700D4062708F145
:10381000070020F00700F0E80223804603F0004C88
:103820005FEA0C0001D097A009E0200501D596A021
:1038300005E0E00701D095A001E0AFF24C00139045
:10384000307823F0004365280CD006DC452809D0E9
:1038500046281DD047287FD13BE0662818D067282E
:103860007AD136E00021112F01DB112000E0781C15
:10387000CDE9000104A90CA8FFF7EEFCDDE90D017C
:103880000C9A4FF0000B07F10109109200914EE0E5
:103890004FF000400097CDE9011004A90CA8FFF7F4
:1038A000DBFCDDE90D020C9B0F994FF0000B9146FC
:1038B0001093009211B9791C00EB0109B7EB0900D4
:1038C00003D4C0F1FF3B07F10109A9EB0700019008
:1038D00042E0012F00DA01270021112F01DD112024
:1038E00000E03846CDE9000104A90CA8FFF7B4FCBC
:1038F000DDE90D010C9A00914FF0000BB9461092D2
:1039000021070FD4009A4A4503DA914601E0A9F154
:103910000109B9F1010F05DD109AA9F10101515C0E
:103920003029F4D0B84202DA10F1040F03DA012191
:10393000CDE9011010E0002803DC8344A9EB00016D
:1039400002E0411C494500DD8946A0EB0B00401C0C
:1039500001904FF000400290200705D4019848459F
:1039600002DB4FF0FF30019000208DF84B000298F1
:103970000DF14B07B0F1004F25D002200C902B2009
:103980000D90029800280CDA404202902D200D90F4
:1039900007E00A210298FCF7DAFD3031029007F8BF
:1039A000011D0C99481E0C900029F2DC0298002899
:1039B000EFD1791E0D980870307800F0200040F0AB
:1039C000450007F8020D11A8C01BC01D02901398F6
:1039D000007800B1012000EB0901019801EBE071D2
:1039E000029801440398401A401E0390E00306D455
:1039F00053462146179A039800F05CF80544139843
:103A0000007818B15246179990476D1CE00323D5F2
:103A100053462146179A039800F04CF805441BE0E2
:103A2000BBF1000F07DB0098584504DD109817998B
:103A300010F80B0001E0179930205246904701988A
:103A40000BF1010B401E05F10105019004D12E2060
:103A50005246179990476D1CB9F10001A9F101096F
:103A6000DEDC05E017F8010B5246179990476D1CF4
:103A70000299481E02900029F4DC53462146179A09
:103A800003989EE62D0000002B000000200000009F
:103A90002DE9F041044600251E461746880404D44B
:103AA00005E039462020B0476D1C641EF9D5284634
:103AB000BDE8F0812DE9F041044600251E46904600
:103AC000C80301D5302700E02027880404D505E08D
:103AD00041463846B0476D1C641EF9D52846BDE8FE
:103AE000F0810A68531C0B601070704713B50C46C8
:103AF0004FF6FF73012269460248FEF7A1F90098CC
:103B00001CBD0000B8000020FDF784F9FFF71FF985
:103B1000FEF7A8FFFFF7A8F8FFF754F8FFF734F80F
:103B2000FFF7BEF8FFF7D8F82F2122A0FCF737FBEC
:103B300028B12F211FA0FCF732FB401C00E01DA084
:103B400005465C21FCF72BFB88B12F2119A0FCF75F
:103B500026FB28B12F2117A0FCF721FB401C00E019
:103B600014A005465C21FCF71AFB401C0BE02F213A
:103B700010A0FCF714FB28B12F210EA0FCF70FFBBF
:103B8000401C00E00BA004460A236C2221460EA034
:103B9000FFF70EFBFF20FEF727FAFEF789FB0B214C
:103BA0000FA0FEF713FF4FF47A70FCF745FE00BF3D
:103BB000FEE700002E2E2F436F72652F5372632F86
:103BC0006D61696E2E6300005B25733A25645D6844
:103BD000656C6C6F20776F726C642025640D0A0031
:103BE00068656C6C6F20776F726C6400020304056B
:103BF000060708090A0B0C0D0E0F10100102000039
:103C0000000000000000010203040607080900008C
:103C1000000001020304004040404040404040405A
:103C2000414141414140404040404040404040408F
:103C300040404040404040050202020202020202AF
:103C40000202020202020220202020202020202046
:103C500020020202020202029090909090901010B6
:103C60001010101010101010101010101010101054
:103C700010100202020202028888888888880808D8
:103C800008080808080808080808080808080808B4
:103C90000808020202024000173C0008BC3C000871
:103CA000000000201C00000038320008D83C00084A
:103CB0001C000020740D00004832000800000000C5
:103CC00010000000010000000024F40000000000CB
:083CD0000000000000000000EC
:04000005080000ED02
:00000001FF
