:020000040800F2
:100000000005002005010008A9230008471A000880
:10001000A5230008B50100083F28000800000000E3
:10002000000000000000000000000000D9230008CC
:10003000B901000800000000AD230008DB23000820
:100040001F0100081F0100081F0100081F01000810
:100050001F0100081F0100081F0100081F01000800
:100060001F0100081F0100081F0100081F010008F0
:100070001F0100081F0100081F0100081F010008E0
:100080001F0100081F0100081F0100081F010008D0
:100090001F0100081F0100081F0100081F010008C0
:1000A0001F0100081F0100081F0100081F010008B0
:1000B0001F0100081F0100081F0100081F010008A0
:1000C0001F0100081F0100081F0100081F01000890
:1000D0001F0100081F0100081F0100081F01000880
:1000E0001F0100081F0100081F010008DFF810D0E1
:1000F00000F04EF800480047912A0008AFF3008056
:10010000000500200648804706480047FEE7FEE756
:10011000FEE7FEE7FEE7FEE7FEE7FEE7FEE7FEE7B7
:1001200049240008ED000008D2B201E000F8012BDC
:10013000491EFBD270470022F6E710B513460A4667
:1001400004461946FFF7F0FF204610BD0022CBB24F
:100150000178994200D10246401C0029F8D110468E
:10016000704730B50B46014600202022012409E0EB
:1001700021FA02F59D4205D303FA02F5491B04FA60
:1001800002F52844151EA2F10102F1DC30BD000089
:10019000064C074D06E0E06840F0010394E80700D4
:1001A00098471034AC42F6D3FFF7A4FF102C000898
:1001B000302C000800BFFEE7704772B600BFFEE7B4
:1001C00070B5044600F0A6F906462546681C10B135
:1001D00004480078054400BF00F09CF9801BA84249
:1001E000FAD370BD080000202DE9F847034600222D
:1001F00094466EE14FF0010808FA02F4D1F800804D
:1002000008EA0400A0427DD1DFF8DCA2D1F8048026
:10021000A8EB0A09D0453AD014DCB8F1030F50D04E
:1002200009DCB8F1000F31D0B8F1010F1CD0B8F1E2
:10023000020F49D120E0B8F1110F18D0B8F1120F18
:1002400042D11EE0B9F5881F25D006DCB9F5803F04
:1002500020D0B9F5801F37D11AE0B9F5001F18D0AA
:10026000B9F5041F30D117E0D1F80CC02DE0D1F85A
:100270000C8008F1040C28E0D1F80C8008F1080C7F
:1002800023E0D1F80C8008F10C0C1EE000BF00BF89
:1002900000BF00BF00BF00BFD1F80880B8F1000F59
:1002A00002D14FF0040C0BE0D1F80880B8F1010F37
:1002B00003D14FF0080C1C6102E04FF0080C5C61A8
:1002C00003E04FF0000C00E000BF00BFFF2801D8A2
:1002D000984601E003F104084646FF2802D84FEA99
:1002E000820803E0A2F108084FEA88084746D6F8DA
:1002F00000804FF00F0909FA07F928EA09080CFAFB
:1003000007F900E088E048EA0908C6F80080D1F85B
:10031000048008F08058B8F1805F7DD100BFDFF81D
:10032000CC81D8F8188048F00108DFF8C091C9F8EE
:100330001880C846D8F8188008F00108CDF8008069
:1003400000BF00BF4FEAB9384FEA920958F8295068
:100350004FEA82784FEA18794FF00F0808FA09F847
:1003600025EA0805DFF88881434502D14FF00008EF
:1003700016E0DFF88081434502D14FF001080FE01D
:10038000DFF87481434502D14FF0020808E0DFF83E
:100390006C81434502D14FF0030801E04FF004089F
:1003A0004FEA82794FEA197908FA09F848EA05050F
:1003B000DFF84C814FEA920948F82950D1F80480BF
:1003C00008F48018B8F5801F0AD1DFF83881D8F812
:1003D000008048EA0008DFF82C91C9F8008009E0A5
:1003E000DFF82081D8F8008028EA0008DFF81491AF
:1003F000C9F80080D1F8048008F40018B8F5001F8F
:1004000010D1DFF8008108F10408D8F8008048EA2C
:100410000008DFF8F09000E05AE009F10409C9F89B
:1004200000800DE0DFF8DC8008F10408D8F80080D7
:1004300028EA0008DFF8CC9009F10409C9F8008027
:10044000D1F8048008F40038B8F5003F0ED1DFF889
:10045000B480A8F10408D8F8008048EA0008DFF862
:10046000A490A9F10409C9F800800DE0DFF8948098
:10047000A8F10408D8F8008028EA0008DFF8849082
:10048000A9F10409C9F80080D1F8048008F4803883
:10049000B8F5803F0ED1DFF86C80A8F10808D8F8D5
:1004A000008048EA0008DFF85C90A9F10809C9F863
:1004B00000800DE0DFF84C80A8F10808D8F8008033
:1004C00028EA0008DFF83C90A9F10809C9F8008083
:1004D000521CD1F8008028FA02F8B8F1000F7FF41E
:1004E00089AEBDE8F887000000001110001002403E
:1004F00000080140000C01400010014000140140C0
:1005000008000140080401400AB1016101E00B0448
:100510000361704701480068704700000000002038
:1005200070B504460CB9012070BD94F83D0028B99F
:10053000002084F83C00204600F03EFB242084F894
:100540003D002068006820F00100216808602068F4
:10055000006840F40040216808602068006820F4CA
:1005600000402168086000F0EFFC05465C496068C7
:10057000884206D85B48854201D2012007E000206E
:1005800005E05948854201D2012000E00020012801
:1005900000D1C9E75548B5FBF0F62068406820F067
:1005A0003F003043216848604D496068884201D867
:1005B000701C07E04FF4967070434FF47A71B0FBF3
:1005C000F1F0401C2168096A21F03F0108432168CD
:1005D000086243496068884214D8681E616849000F
:1005E000B0FBF1F0401CC0F30B00042801D2042042
:1005F0003DE0681E61684900B0FBF1F0401CC0F3AB
:100600000B0034E0A06838B9681E616801EB410155
:10061000B0FBF1F0401C0AE0681E616801EBC1020A
:1006200002EB0111B0FBF1F0401C40F48040C0F33C
:100630000B0008B901201AE0A06848B9681E61687B
:1006400001EB4101B0FBF1F0401CC0F30B000CE0EA
:10065000681E616801EBC10202EB0111B0FBF1F011
:10066000401CC0F30B0040F4804040F4004021687F
:10067000C9694CF6FF72914308432168C861D4E907
:10068000070108432168096821F0C0010843216877
:100690000860D4E9031008432168896848F2FF32F2
:1006A0009143084321688860D4E905010843216823
:1006B000C96821F0FF0108432168C860206800680C
:1006C00040F001002168086000202064202084F8A8
:1006D0003D000020206384F83E0000BF24E70000B6
:1006E000A086010080841E0000093D0040420F00EA
:1006F0002DE9FE4F04460F4690469946DDE90CABC6
:100700000E9E00200290FFF705FF054694F83D007D
:10071000202872D119230122CA492046009501F0F0
:1007200006FB10B10220BDE8FE8F00BF94F83C002C
:10073000012801D10220F6E7012084F83C0000BF27
:100740002068006800F0010028B92068006840F0C7
:100750000100216808602068006820F400602168BA
:100760000860222084F83D00402084F83E000020EC
:100770002064C4F824A0A4F82AB0608D2085B24873
:10078000E0624B46424639462046CDE9006501F01D
:100790007BF908B10120C6E7208D88B900BF002091
:1007A000019020684069019020688069019000BF35
:1007B00000BF2068006840F40070216808604BE0CA
:1007C000208D01281AD12068006820F480602168FB
:1007D000086072B600BF0020019020684069019057
:1007E00020688069019000BF00BF2068006840F465
:1007F00000702168086062B62EE020E1208D02289A
:1008000019D12068006840F400602168086072B661
:1008100000BF002001902068406901902068806935
:10082000019000BF00BF2068006820F4806021684C
:10083000086062B610E02068006840F480602168BB
:10084000086000BF00200190206840690190206886
:100850008069019000BF00BFE2E0208D03287DD8B1
:10086000208D012815D12A463146204601F03BFB58
:1008700008B1012057E720680069616A0870606A62
:10088000401C6062208D401E2085608D401E60856A
:10089000C6E0208D02282CD1334600226B49204629
:1008A000009501F044FA08B101203CE772B62068D7
:1008B000006840F400702168086020680069616A7F
:1008C0000870606A401C6062208D401E2085608D2B
:1008D000401E608562B620680069616A0870606ABF
:1008E000401C6062208D401E2085608D401E60850A
:1008F00096E03346002255492046009501F017FA4C
:1009000008B101200FE72068006820F480602168AA
:10091000086072B620680069616A0870606A401CED
:100920006062208D401E2085608D401E6085484895
:1009300000681921B0FBF1F04FF47A71B0FBF1F0CF
:10094000C0EBC00000EB8000029000BF0298401E88
:1009500002900298A8B90020206300E039E020202E
:1009600084F83D00002084F83E00206C40F0200018
:10097000206462B600BF002084F83C0000BF012064
:10098000D1E620684069C0F380000028DED02068EE
:10099000006840F400702168086020680069616A9E
:1009A0000870606A401C6062208D401E2085608D4A
:1009B000401E608562B620680069616A0870606ADE
:1009C000401C6062208D401E2085608D401E608529
:1009D00026E02A463146204601F085FA08B101207A
:1009E000A1E620680069616A0870606A401C606264
:1009F000208D401E2085608D401E608520684069E6
:100A0000C0F3800060B120680069616A0870606AA4
:100A1000401C6062208D401E2085608D401E6085D8
:100A2000208D00287FF419AF202084F83D0000209D
:100A300084F83E0000BF84F83C0000BF73E602204B
:100A400071E60000020010000000FFFF040001003A
:100A50000C0000202DE9FC5F04460F4690469946A5
:100A6000DDE90CAB0E9EFFF755FD054694F83D0001
:100A700020287DD1192301224D492046009501F0FF
:100A800056F910B10220BDE8FC9F00BF94F83C006D
:100A9000012801D10220F6E7012084F83C0000BFC4
:100AA0002068006800F0010028B92068006840F064
:100AB0000100216808602068006820F40060216857
:100AC0000860212084F83D00402084F83E0000208A
:100AD0002064C4F824A0A4F82AB0608D208535488D
:100AE000E0624B46424639462046CDE9006501F0BA
:100AF0007BF808B10120C6E731E02A46314620469E
:100B000001F036FA50B1206C042805D12068006845
:100B100040F40070216808600120B4E7606A007842
:100B200021680861606A401C6062208D401E20853B
:100B3000608D401E608520684069C0F3800070B100
:100B4000208D60B1606A007821680861606A401C8D
:100B50006062208D401E2085608D401E6085208D46
:100B60000028CAD12A463146204601F0ADF800E0FF
:100B70001CE050B1206C042805D12068006840F4C6
:100B800000702168086001207DE72068006840F45B
:100B9000007021680860202084F83D00002084F85F
:100BA0003E0000BF84F83C0000BF6CE702206AE70B
:100BB000020010000000FFFF10B586B004460020C0
:100BC000029003900490059015492068884225D131
:100BD00000BF1448806940F0080012498861084647
:100BE000806900F00800019000BF00BFC0200290A3
:100BF000122003900320059002A90B48FFF7F4FA96
:100C000000BF0848C06940F400100649C8610846A2
:100C1000C06900F40010019000BF00BF06B010BD15
:100C20000054004000100240000C014003480068DE
:100C30000349097808440149086070470000002012
:100C40000800002010B50848006840F01000064970
:100C50000860032000F098F80F2000F007F800F07B
:100C60002BF8002010BD00000020024070B50446A3
:100C70000E4800784FF47A71B1FBF0F00C49096826
:100C8000B1FBF0F5284600F0E9FB08B1012070BD8A
:100C9000102C07D200222146501E00F037F80548DC
:100CA000046001E00120F2E70020F0E708000020E6
:100CB0000C0000200400002008B500BF1148806926
:100CC00040F001000F4988610846806900F001008A
:100CD000009000BF00BF00BF0846C06940F08050D0
:100CE000C8610846C06900F08050009000BF00BF96
:100CF00000BF0549486820F0E06040F0007048609F
:100D000000BF08BD00100240000001402DE9F05F67
:100D100080460D461646002701F0A4FD07463946D9
:100D20002A46334601F00700C0F1070ABAF1040F62
:100D300002D94FF0040A01E0C0F1070AD14600F1E0
:100D4000040ABAF1070F02D24FF0000A01E0A0F145
:100D5000030AD4464FF0010A0AFA09FAAAF1010A75
:100D60000AEA020A0AFA0CFA4FF0010B0BFA0CFB22
:100D7000ABF1010B0BEA030B4AEA0B042146404698
:100D800001F078FDBDE8F09F00BF00F00702064BC0
:100D900019684FF6FF031940044B0B4343EA022145
:100DA000014B196000BF70470CED00E00000FA0530
:100DB00070B504460D460CB9012070BD5A48006854
:100DC00000F00700A8420ED25748006820F0070044
:100DD0002843554908600846006800F00700A8420B
:100DE00001D00120E9E7207800F0020002281DD19F
:100DF000207800F00400042805D14C48406840F4F5
:100E0000E0604A494860207800F00800082805D1D1
:100E10004648406840F46050444948604348406850
:100E200020F0F000A168084340494860207800F0B5
:100E3000010078B36068012806D13C48006800F4DE
:100E4000003090B90120B8E76068022806D1374821
:100E5000006800F0007040B90120AEE73348006838
:100E600000F0020008B90120A7E73048406820F0F0
:100E70000300616808432D494860FFF74BFB0646B5
:100E800009E0FFF747FB801B41F28831884202D915
:100E9000032092E707E02548406800F00C006168F5
:100EA000B0EB810FEDD12048006800F00700A842A8
:100EB0000ED91D48006820F0070028431A49086031
:100EC0000846006800F00700A84201D0012074E73E
:100ED000207800F00400042807D11448406820F46A
:100EE000E060E168084311494860207800F008009C
:100EF000082808D10D48406820F46050216940EA74
:100F0000C1000A49486000F03FF808494968C1F348
:100F10000311074A515CC84006490860064800684A
:100F2000FFF7A4FE002048E7002002400010024026
:100F3000F62B00080C000020040000200148006887
:100F4000704700000C00002000B5FFF7F7FF0449D0
:100F50004968C1F30221034A515CC84000BD00004A
:100F600000100240062C000800B5FFF7E7FF044917
:100F70004968C1F3C221034A515CC84000BD00006A
:100F800000100240062C000870B500210022002449
:100F900000230020134D696801F00C05F5B1042D04
:100FA00002D0082D19D101E00F4819E00F4DC1F30F
:100FB0008346AB5D01F4803555B10A4D6D68C5F3CC
:100FC00040450B4E725D084D5D43B5FBF2F402E007
:100FD000084D03FB05F4204602E000BF024800BFB5
:100FE00000BF70BD0010024000127A00E42B000820
:100FF000F42B000800093D00F8B504460CB90120A7
:10100000F8BD207800F00100002878D0F84840684A
:1010100000F00C0004280CD0F548406800F00C00EB
:10102000082811D1F248406800F48030B0F5803FC4
:101030000AD1EF48006800F4003000285FD06068F3
:1010400000285CD10120DBE700BF6068B0F5803F7D
:1010500006D1E748006840F48030E549086028E0A0
:10106000606858B9E248006820F48030E0490860C0
:101070000846006820F4802008601AE06068B0F537
:10108000A02F0BD1DA48006840F48020D8490860CE
:101090000846006840F4803008600AE0D4480068E0
:1010A00020F48030D24908600846006820F480208F
:1010B000086000BF606888B1FFF72CFA054606E0BB
:1010C000FFF728FA401B642801D9032098E7C84895
:1010D000006800F400300028F2D010E0FFF71AFAA0
:1010E000054606E0FFF716FA401B642801D90320E5
:1010F00086E7BF48006800F400300028F2D120786D
:1011000000F00200022857D1B948406800F00C00F6
:1011100050B1B748406800F00C00082818D1B44816
:10112000406800F4803098B9B148006800F00200CF
:1011300020B12069012801D0012061E7AC48006896
:1011400020F0F800616940EAC100A949086033E075
:101150002069E8B10120A7490860FFF7DBF90546DF
:1011600006E0FFF7D7F9401B022801D9032047E723
:101170009F48006800F002000028F2D09C480068F8
:1011800020F0F800616940EAC1009949086013E065
:10119000002098490860FFF7BDF9054606E0FFF713
:1011A000B9F9401B022801D9032029E790480068BB
:1011B00000F002000028F2D1207800F00800082892
:1011C0002DD1A069B8B101208B490860FFF7A2F9C1
:1011D000054606E0FFF79EF9401B022801D90320CF
:1011E0000EE78348406A00F002000028F2D0012098
:1011F00001F0DEF813E000207F490860FFF78AF96C
:10120000054606E0FFF786F9401B022801D90320B6
:10121000F6E67748406A00F002000028F2D1207814
:1012200000F00400042873D100277148C06900F061
:10123000805070B900BF6E48C06940F080506C4962
:10124000C8610846C06900F08050009000BF00BF30
:1012500001276A48006800F48070B0B967480068E8
:1012600040F4807065490860FFF754F9054606E0D0
:10127000FFF750F9401B642801D90320C0E65F48FE
:10128000006800F480700028F2D000BFE0680128F8
:1012900006D15748006A40F001005549086227E02E
:1012A000E06858B95248006A20F0010050490862CD
:1012B0000846006A20F00400086219E0E06805288A
:1012C0000BD14B48006A40F00400494908620846C7
:1012D000006A40F0010008620AE04548006A20F018
:1012E0000100434908620846006A20F004000862D1
:1012F00000BFE068A0B1FFF70DF9054609E0FFF770
:1013000009F9401B41F28831884202D9032077E66F
:1013100022E03748006A00F002000028EFD012E017
:10132000FFF7F8F8054608E0FFF7F4F8401B41F234
:101330008831884201D9032062E62D48006A00F016
:1013400002000028F0D1012F05D12948C06920F002
:1013500080502749C86100BFE069C8B3244840688D
:1013600000F00C00082860D0E069022848D1002075
:1013700020490866FFF7CEF8054606E0FFF7CAF8F1
:10138000401B022801D903203AE61948006800F002
:1013900000700028F2D1206AB0F5803F07D11448D0
:1013A000406820F40030A168084311494860D4E93E
:1013B000080108430E49496821F4741108430C4997
:1013C000486001200B490866FFF7A4F8054607E0CE
:1013D0003DE0FFF79FF8401B022801D903200FE6EC
:1013E0000348006800F000700028F2D02FE00000F1
:1013F000001002400000424280044242007000405F
:10140000002014490866FFF785F8054606E0FFF757
:1014100081F8401B022801D90320F1E50E4800683D
:1014200000F000700028F2D111E0E069012800D13D
:10143000E6E50948466806F48031206A814204D115
:1014400006F47011606A814201D00120D8E50020C5
:10145000D6E50000000042420010024070B504468C
:101460002546681EB0F1807F01D301200FE0681E81
:101470004FF0E02148610F214FF0FF3001F0FAF901
:1014800000204FF0E021886107200861002070BD36
:1014900030B502460B4600BF92F83C00012801D14E
:1014A000022030BD012082F83C0000BF022082F8FB
:1014B0003D00106844681068816824F07004186862
:1014C000044310684460104D1068A8420BD01068A7
:1014D000B0F1804F07D00D4D1068A84203D00C4DDD
:1014E0001068A84205D121F08001586801431068B6
:1014F0008160012082F83D0000BF002082F83C009E
:1015000000BF00BFCDE70000002C014000040040F8
:101510000008004010B504460CB9012010BD94F835
:101520003D0028B9002084F83C00204600F026F851
:10153000022084F83D00211D206800F087FF012073
:1015400084F8460000BF84F83E0001213F20015589
:10155000402001554120015500BF00BF012084F803
:10156000420043200155442001554520015500BF4C
:10157000012084F83D000020D0E7000008B5094AAA
:10158000016891420DD100BF0749C96941F00201CC
:10159000054AD1611146C96901F00201009100BFFD
:1015A00000BF08BD00040040001002402DE9F041DA
:1015B00004460D46002700BF94F83C00012802D1E4
:1015C0000220BDE8F081012084F83C0000BF022029
:1015D00084F83D002068866826F0770626F47F466A
:1015E000206886602868502833D00CDC202850D032
:1015F00004DC00284BD0102851D149E0302849D0D4
:1016000040284CD139E060282DD0702807D0B0F5A3
:10161000805F03D0B0F5005F41D10DE041E0D5E936
:1016200002136A68206800F04BFF2068866846F065
:1016300077062068866034E0D5E902136A6820687E
:1016400000F03EFF2068806840F480402168886098
:1016500027E0EA686968206801F002F850212068F4
:1016600000F039FF1DE0EA686968206801F00BF8B6
:101670006021206800F02FFF13E0EA6869682068A5
:1016800000F0EEFF4021206800F025FF09E000BFD8
:1016900000BF00BF2968206800F01DFF01E001279E
:1016A00000BF00BF012084F83D0000BF002084F887
:1016B0003C0000BF384684E710B586B004460020E1
:1016C000029003900490059013492068884221D12C
:1016D00000BF1248806940F0080010498861084640
:1016E000806900F00800019000BF00BF1020029048
:1016F00002200390059002A90948FEF775FD00BF7E
:101700000849486820F4406040F0E06040F4006020
:10171000486000BF06B010BD000400400010024049
:10172000000C0140000001402DE9F04104460D4647
:101730001646002700BF94F83C00012802D1022081
:10174000BDE8F081012084F83C0000BF36B1042ED2
:101750001BD0082E31D00C2E5ED145E029462068E2
:1017600000F0C2FE2068806940F0080021688861AE
:101770002068806920F00400216888612068806901
:10178000296908432168886148E02946206800F0FB
:10179000DBFE2068806940F4006021688861206871
:1017A000806920F4806021688861206880692969E7
:1017B00040EA01202168886130E02946206800F075
:1017C000F7FE2068C06940F008002168C861206801
:1017D000C06920F004002168C8612068C0692969D7
:1017E00008432168C86119E02946206800F014FF09
:1017F0002068C06940F400602168C8612068C06941
:1018000020F480602168C8612068C069296940EAC5
:1018100001202168C86101E0012700BF00BF00BFAF
:10182000002084F83C0000BF384689E710B5044624
:101830000CB9012010BD94F83D0028B9002084F8AF
:101840003C00204600F025F8022084F83D00211DD0
:10185000206800F0FBFD012084F8460000BF84F8FA
:101860003E0001213F2001554020015541200155F6
:1018700000BF00BF012084F84200432001554420EE
:1018800001554520015500BF012084F83D0000208E
:10189000D0E7704710B504460CB9012010BDA0690F
:1018A00000B100E000BF94F8410028B9002084F89E
:1018B0004000204600F02AF8242084F841002068E7
:1018C000C06820F400502168C860204600F0F0FE97
:1018D0002068006920F49040216808612068406910
:1018E00020F02A00216848612068C06840F4005058
:1018F0002168C86000206064202084F8410084F8DA
:1019000042000020606300BFC8E7000010B586B049
:101910000446002002900390049005901A49206824
:1019200088422ED100BF1948806940F48040174991
:1019300088610846806900F48040019000BF00BFC4
:1019400000BF0846806940F004008861084680694D
:1019500000F00400019000BF00BF48150290022073
:1019600003900320059002A90948FEF73DFC4FF4BF
:101970008060029000200390049002A90448FEF7C2
:1019800033FC06B010BD00000038014000100240DA
:10199000000801402DE9F84F04460E4617469946C7
:1019A0004FF0000A94F8410020284AD106B117B937
:1019B0000120BDE8F88F00206064212084F84100F8
:1019C000FEF7A8FD8246A784E784A068B0F5805F93
:1019D00004D1206910B90025B04602E035464FF029
:1019E00000081BE05346002280212046CDF80090DD
:1019F00000F0DCFE08B10320DBE745B9B8F80000D1
:101A0000C0F308002168486008F1020803E0287864
:101A1000216848606D1CE08C401EE084E08C00284A
:101A2000E0D15346002240212046CDF8009000F03E
:101A3000BDFE08B10320BCE7202084F8410000204F
:101A4000B7E70220B5E700BFFEE701460868406936
:101A5000C0F38020B0B16FF480600A68506100204C
:101A60000863202081F83D00002081F83E00086CCA
:101A700040F00400086400BF002081F83C0000BF73
:101A8000012070470020FCE72DE9F84304460F468B
:101A900015469946DDE908862068006840F48060B4
:101AA000216808602068006840F480702168086040
:101AB000434600224FF001112046009600F037F90E
:101AC00060B12068006800F48070B0F5807F02D1BA
:101AD0004FF4007020640320BDE8F88307F0FE0097
:101AE00021680861334642463E49204600F07EF9AF
:101AF00008B10120F0E700BF002000902068406995
:101B0000009020688069009000BF00BF32464146C7
:101B1000204600F02DFA50B1206C042805D1206831
:101B2000006840F40070216808600120D4E7B9F132
:101B3000010F03D1E8B22168086117E0C5F307205F
:101B40002168086132464146204600F011FA50B142
:101B5000206C042805D12068006840F400702168DA
:101B600008600120B8E7E8B22168086132464146C2
:101B7000204600F0FDF950B1206C042805D1206802
:101B8000006840F40070216808600120A4E7206824
:101B9000006840F4807021680860434600224FF0DE
:101BA00001112046009600F0C2F858B12068006884
:101BB00000F48070B0F5807F02D14FF40070206493
:101BC000032089E7F8B240F001002168086133463C
:101BD00042460449204600F009F908B101207BE79C
:101BE000002079E7020001002DE9F8430446884609
:101BF00015469946DDE908672068006840F4807062
:101C000021680860334600224FF0011120460097FA
:101C100000F08DF860B12068006800F48070B0F5C5
:101C2000807F02D14FF4007020640320BDE8F88368
:101C300008F0FE00216808613B46324621492046F3
:101C400000F0D4F808B10120F0E700BF00200090B8
:101C500020684069009020688069009000BF00BF44
:101C60003A463146204600F083F950B1206C0428F2
:101C700005D12068006840F40070216808600120E8
:101C8000D4E7B9F1010F03D1E8B22168086117E088
:101C9000C5F30720216808613A463146204600F026
:101CA00067F950B1206C042805D12068006840F421
:101CB0000070216808600120B8E7E8B22168086177
:101CC0000020B3E70200010070B504460D46164639
:101CD00025E02046FFF7B9FE08B1012070BD681C61
:101CE000E8B1FEF717FC801BA84200D8BDB92068F8
:101CF0004069C0F3800090B900202063202084F860
:101D00003D00002084F83E00206C40F0200020645C
:101D100000BF002084F83C0000BF0120DEE72068FF
:101D20004069C0F380000028D3D00020D6E72DE919
:101D3000F04104460D4617461E46DDF8188038E08F
:101D4000701CA8B3FEF7E6FBA0EB0800B04200D879
:101D500076BBC5F3074001280AD120684069A9B2C3
:101D60000840A9B2884201D101200BE0002009E01F
:101D700020688069A9B20840A9B2884201D1012037
:101D800000E00020B84214D100202063202084F815
:101D90003D00002084F83E00206C40F020002064CC
:101DA00000BF002084F83C0000BF0120BDE8F081A6
:101DB000FFE7C5F3074001280AD120684069A9B2AE
:101DC0000840A9B2884201D101200BE0002009E0BF
:101DD00020688069A9B20840A9B2884201D10120D7
:101DE00000E00020B842ABD00020DFE72DE9F04151
:101DF00004460D4616461F4658E020684069C0F369
:101E00008020E8B12068006840F400702168086014
:101E10006FF480602168486100202063202084F8EE
:101E20003D00002084F83E00206C40F00400206457
:101E300000BF002084F83C0000BF0120BDE8F08115
:101E4000701C90B3FEF766FBC01BB04200D866BBA7
:101E5000C5F3074001280AD120684069A9B20840AB
:101E6000A9B2884201D101200BE0002009E02068DE
:101E70008069A9B20840A9B2884201D1012000E0DE
:101E8000002090B900202063202084F83D0000202D
:101E900084F83E00206C40F02000206400BF002049
:101EA00084F83C0000BF0120C8E7FFE7C5F3074006
:101EB00001280AD120684069A9B20840A9B2884225
:101EC00001D101200BE0002009E020688069A9B25F
:101ED0000840A9B2884201D1012000E0002000287A
:101EE0008BD00020AAE770B504460D46164637E0B1
:101EF00020684069C0F30010A0B16FF010002168A5
:101F0000486100202063202084F83D00002084F8F0
:101F10003E00206C206400BF002084F83C0000BF1D
:101F2000012070BDFEF7F6FA801BA84200D8BDB9AB
:101F300020684069C0F3801090B900202063202001
:101F400084F83D00002084F83E00206C40F0200022
:101F5000206400BF002084F83C0000BF0120E0E7BF
:101F600020684069C0F380100028C1D00020D8E765
:101F700070B504460D46164625E02046FFF765FD80
:101F800008B1012070BD681CE8B1FEF7C3FA801BE0
:101F9000A84200D8BDB920684069C0F3C01090B90C
:101FA00000202063202084F83D00002084F83E00BB
:101FB000206C40F02000206400BF002084F83C002A
:101FC00000BF0120DEE720684069C0F3C010002890
:101FD000D3D00020D6E70000002839D1394909685C
:101FE00041F40041374A116000BF00BF00BF00BF8D
:101FF00000BF00BF00BF00BF00BF00BF00BF00BFE9
:1020000000BF00BF00BF2F49096821F400412D4ADD
:10201000116000BF00BF00BF00BF00BF00BF00BF16
:1020200000BF00BF00BF00BF00BF00BF00BF00BFB8
:1020300000BF00BF00BF00BF00BF00BF00BF00BFA8
:1020400000BF00BF00BF00BF00BF00BF00BF38E03F
:102050001C49096841F400411A4A116000BF00BFE1
:1020600000BF00BF00BF00BF00BF00BF00BF00BF78
:1020700000BF00BF00BF00BF00BF00BF00BF00BF68
:1020800000BF00BF00BF00BF00BF00BF00BF00BF58
:1020900000BF00BF00BF00BF0A49096821F400412A
:1020A000084A116000BF00BF00BF00BF00BF00BFF3
:1020B00000BF00BF00BF00BF00BF00BF00BF00BF28
:1020C00000BF70470C08014070B5054600240EE0C3
:1020D000C4F1170101208840284018B10120FFF702
:1020E0007BFF02E00020FFF777FF601CC4B2182CD2
:1020F000EEDB70BD0EB5002220211348FEF704FA76
:102100000520FEF75DF84FF47A7003210F4A012392
:10211000CDE900210290C4224F210D48FEF7E8FAD4
:10212000012220210848FEF7EFF90A20FEF748F8BF
:10213000064800780549497840EA01200349897832
:1021400040EA01400EBD0000000C014010000020DC
:10215000180000201FB5002220210F48FEF7D4F9F7
:102160000520FEF72DF81A2003904FF47A70012114
:1021700003AA0B46CDE900210290C3224E21074855
:10218000FEF768FC012220210348FEF7BDF90A2072
:10219000FEF716F81FBD0000000C014018000020DB
:1021A00000B585B00020019002900390049000BF1C
:1021B0003248806940F010003049886108468069E3
:1021C00000F01000009000BF00BF00BF084680690B
:1021D00040F0200088610846806900F020000090EF
:1021E00000BF00BF00BF0846806940F0040088615E
:1021F0000846806900F00400009000BF00BF00BFE7
:102200000846806940F0080088610846806900F04F
:102210000800009000BF00BF00224FF400411848A2
:10222000FEF772F9012220211648FEF76DF94FF4EE
:1022300080500190144802900120039001A9104899
:10224000FDF7D2FF4FF400400190012002900020E2
:1022500003900320049001A90948FDF7C5FF202041
:10226000019001200290002003900320049001A916
:102270000448FDF7B9FF05B000BD000000100240A2
:1022800000080140000C01400000211010B50B486F
:102290000B4908600B484860002109488160C16013
:1022A0004FF480410161002141618161C16101629E
:1022B000FEF736F908B1FDF780FF10BD005400406D
:1022C00018000020A086010000B58DB00020099004
:1022D0000A900B900C90079008901C216846FDF71F
:1022E0002AFF20482049086041F61F40486000212D
:1022F0001D4881601321C160002101618161FFF7E8
:1023000009F908B1FDF759FF4FF48050099009A968
:102310001548FFF74BF908B1FDF74FFF1248FFF7DB
:1023200085FA08B1FDF749FF00200790089007A93A
:102330000D48FFF7ADF808B1FDF73FFF60200090B2
:102340000A2001900020029004900022694606486D
:10235000FFF7EAF908B1FDF730FF0348FFF7ACF9E2
:102360000DB000BD000400406C00002010B50B480B
:102370000B4908604FF4E130486000210848816053
:10238000C16001610C21416100218161C161FFF7E0
:1023900081FA08B1FDF711FF10BD000000380140BF
:1023A000B400002000BFFEE700BFFEE7704700005A
:1023B00008B508490968C9084FF47A72B1FBF2F10F
:1023C0004143009100BF00BF00994A1E00920029BE
:1023D000F9D108BD0C000020704710B5FEF726FCAF
:1023E00010BD00B58FB0282105A8FDF7A4FE14216B
:1023F0006846FDF7A0FE012005900004069000202D
:1024000007900120099002200C90C1030D914FF418
:10241000E0110E9105A8FEF7EFFD08B1FDF7CDFE26
:102420000F20009002200190002002904FF4806065
:1024300003900020049002216846FEF7B9FC08B121
:10244000FDF7BBFE0FB000BD7047000010B502687D
:10245000184B984208D0B0F1804F05D0164B9842E7
:1024600002D0164B984203D122F070024B681A43F7
:10247000104B984208D0B0F1804F05D00E4B9842D7
:1024800002D00E4B984203D122F44072CB681A431B
:1024900022F080034C6943EA040202608B68C36245
:1024A0000B688362034B984201D10B6903630123DC
:1024B000436110BD002C01400004004000080040B2
:1024C00030B50C46816821F47F4142EA032525435B
:1024D0002943816030BD0A46816821F0700142F0D5
:1024E000070319438160704730B5026A056A25F019
:1024F000010505624368846924F0700424F0030434
:102500000D682C4322F002028D682A430D4DA8422B
:1025100006D100BF22F00802CD682A4322F004024F
:10252000084DA84207D123F4807323F400734D694A
:102530002B438D692B43436084614D684563026280
:1025400030BD0000002C014030B5026A056A25F05C
:10255000100505624368846924F4E04424F440745F
:102560000D6844EA052422F020028D6842EA051233
:102570000E4DA84207D100BF22F08002CD6842EA8A
:10258000051222F04002094DA84209D123F48063CC
:1025900023F400634D6943EA85038D6943EA8503AB
:1025A000436084614D688563026230BD002C014048
:1025B00030B5026A056A25F4807505624368C4690E
:1025C00024F0700424F003040D682C4322F40072FC
:1025D0008D6842EA05220F4DA84207D100BF22F4C0
:1025E0000062CD6842EA052222F48062094DA842C9
:1025F00009D123F4805323F400534D6943EA0513B2
:102600008D6943EA05134360C4614D68C563026286
:1026100030BD0000002C014030B5036A056A25F486
:10262000805505624468C26922F4E04222F4407297
:102630000D6842EA052223F400538D6843EA05330E
:10264000064DA84204D124F480444D6944EA85141F
:102650004460C2614D680564036230BD002C0140D6
:1026600030B50B461446026A056A25F0010505627D
:10267000816921F0F00141EA041122F00A021A43B3
:102680008161026230BD30B50B461446026A056AAC
:1026900025F010050562816921F4704141EA043199
:1026A00022F0A00242EA03128161026230BD000002
:1026B00070B504462168096921F44051E26811436C
:1026C000226811612269A1681143626941EA020529
:1026D0002168C96841F20C62914329432268D160A4
:1026E0002168496921F44071A2691143226851614E
:1026F0002D4A2168914202D1FEF736FC01E0FEF737
:1027000023FC00EBC00101EB001162689200B1FBF9
:10271000F2F100EBC00202EB001263689B00B2FB17
:10272000F3F26423B2FBF3F202EBC20303EB0212F7
:10273000A1EB8201322202EB01116422B1FBF2F122
:1027400001F0F00100EBC00202EB001263689B0095
:10275000B2FBF3F26423B2FBF3F201EB021200EBE3
:10276000C00101EB001163689B00B1FBF3F100EBCA
:10277000C00303EB00136668B600B3FBF6F36426F0
:10278000B3FBF6F303EBC30606EB0313A1EB8301E4
:10279000322303EB01116423B1FBF3F101F00F01CC
:1027A00011442268916070BD003801402DE9F0416C
:1027B00004460D4617469846069E34E0701C88B3C2
:1027C0002EB1FDF7A7FEA0EB0800B0422BD900BF49
:1027D00000BF21680C3151E8001F21F4D07021683E
:1027E0000C3141E80002002AF3D100BF00BF00BF56
:1027F0002168143151E8001F21F0010021681431D3
:1028000041E80002002AF3D100BF202084F84100F3
:1028100084F8420000BF002084F8400000BF03207D
:10282000BDE8F081FFE7206800682840A84201D198
:10283000012000E00020B842C0D00020F0E700BF37
:10284000FEE700000FB4054B10B503A9044A029837
:1028500000F034F810BC5DF814FB0000752A000885
:102860001400002002480068C0F3022070470000F6
:102870000CED00E010B5002804DB0A07130E054A32
:10288000135406E00A07140E034A00F00F031B1F3F
:10289000D45410BD00E400E018ED00E002E008C8E8
:1028A000121F08C1002AFAD170477047002001E0CA
:1028B00001C1121F002AFBD1704700002DE9FF4F14
:1028C0008BB09A460F460546002606E025280BD019
:1028D00052460D9990476D1C761C28780028F5D13A
:1028E0000FB03046BDE8F08F0024A04601226049B9
:1028F00000E0044315F8013F203B02FA03F00842D0
:10290000F7D128782E2817D115F8010F44F00404C8
:102910002A280ED06FF02F022878A0F13001092963
:102920000AD808EB880102EB410100EB01086D1C9D
:10293000F2E757F8048B6D1C287869283ED006DC36
:102940000028CDD063280BD0642804D136E073284A
:1029500010D075284BD052460D999047761C85E0D3
:1029600017F8040B8DF8000000208DF80100E946EF
:10297000012003E057F8049B4FF0FF3061074FF050
:10298000000401D40AE0641C44450DDA8442FADBF9
:1029900019F804100029F6D106E0641C8442FCDB1F
:1029A00019F804100029F8D1264404E019F8010BA5
:1029B00052460D999047641EF8D257E001CF4FF070
:1029C0000A0B002802DA40422D2102E0210504D53D
:1029D0002B218DF82410012103E0E10705D02021EF
:1029E000F7E70DF1200908910CE00021F9E701CF8C
:1029F0004FF00A0BF9E75946FDF7B3FB01F130023E
:102A000009F8012D0028F6D1ADEB090000F1200BEB
:102A1000600701D44FF00108D84502DDA8EB0B0098
:102A200000E000208046002406E009A85246005D30
:102A30000D999047641C761C08988442F5DB04E0ED
:102A4000302052460D999047761CB8F10001A8F14C
:102A50000108F5DC05E019F8010B52460D99904785
:102A6000761CBBF10001ABF1010BF4DC6D1C34E70B
:102A70000928010013B50C464FF6FF730122694681
:102A80000248FEF787FF00981CBD0000B40000203C
:102A9000FEF7D8F8FFF7A5FCFFF782FBFFF766FC0F
:102AA000FFF712FCFFF7F2FB2F213DA0FDF74EFBD5
:102AB00028B12F213AA0FDF749FB401C00E038A0C7
:102AC00005465C21FDF742FB88B12F2134A0FDF7BC
:102AD0003DFB28B12F2132A0FDF738FB401C00E060
:102AE0002FA005465C21FDF731FB401C0BE02F2198
:102AF0002BA0FDF72BFB28B12F2129A0FDF726FBEA
:102B0000401C00E026A004460A236622214629A094
:102B1000FFF798FEFF20FFF7D7FAFFF71BFB3DE01A
:102B2000FFF7E8FA06462F211DA0FDF70FFB28B19D
:102B30002F211BA0FDF70AFB401C00E018A0054652
:102B40005C21FDF703FB88B12F2115A0FDF7FEFAEC
:102B500028B12F2112A0FDF7F9FA401C00E010A0C7
:102B600005465C21FDF7F2FA401C0BE02F210CA07A
:102B7000FDF7ECFA28B12F2109A0FDF7E7FA401C78
:102B800000E007A004463346882221460FA0FFF745
:102B900059FE4FF47A70FDF713FB00BFC0E7000049
:102BA0002E2E2F436F72652F5372632F6D61696EE6
:102BB0002E6300005B25733A25645D68656C6C6F5D
:102BC00020776F726C642025640D0A005B25733AD0
:102BD00025645D636F756E743A2025640D0A0D0AD5
:102BE0000000000002030405060708090A0B0C0D8B
:102BF0000E0F101001020000000000000000010292
:102C00000304060708090000000001020304000095
:102C1000302C000800000020180000009C2800084C
:102C2000482C000818000020E8040000AC28000828
:102C30000000000010000000010000000024F4006B
:082C400000000000000000008C
:04000005080000ED02
:00000001FF
